:100000000C9475040C94A4040C94A4040C94A404FF
:100010000C94A4040C94A4040C94A4040C94CA128C
:100020000C94F1120C94B1130C94A4040C943A1394
:100030000C94A4040C94A4040C9455130C94A404E0
:100040000C94A4040C94A4040C94A4040C94A40490
:100050000C94A4040C94A4040C94A4040C94A40480
:100060000C94A4040C94A4040C94A4040C94A40470
:100070000C9418130C94A4040C94B4040C94A404CD
:100080000C94A4040C94A4040C94A404084AD73B34
:100090003BCE016E84BCBFFDC12F3D6C74319ABD57
:1000A00056833DDA3D00C77F11BED9E4BB4C3E917B
:1000B0006BAAAABE000000803F0001B202FFFF0150
:1000C00090040923A135016A0206000160080000BE
:1000D0000000000000000060044000000001620217
:1000E000000000600400400000037B034CCD6C0363
:1000F000AB0336567600680402CB47A20218040010
:10010000058BC1010C0400000000037F060CC92C04
:10011000979797038903264666006C02200001EC3E
:100120000400004000037F060CC92C979797040237
:10013000030D355D040904872D353D00A301000042
:10014000000001078601FE074105F120283038072D
:1001500046019A074704F12830380216020000FBD6
:1001600000003E000B00360001000200030000000A
:10017000650054FFEF0000FA80000B1282000100BE
:10018000020000000000000000000000000000006D
:10019000280000FFFF4581FFFFFA72000000000009
:1001A0000003E80000000100017FFFFFFE80010066
:1001B0001B00000000000000000000000000000024
:1001C0003E03304000000002CAE3093E80000020E8
:1001D000000000000000004000000060000000413E
:1001E000FF000000000B2A0000165500002182FDD0
:1001F000872650FD800000001F00000005800000E1
:1002000000000000010000000200000003000040A8
:100210000000000000046F0002653200005EC04074
:10022000000000000000000000000000000000FBD3
:100230008C6F5DFD5D08D9007C733B006C12CC3285
:1002400000139D3200D0D632000800400001F4FFB8
:10025000E68079020000000000D0D600002710FBE5
:10026000000000400000000000000000000000004E
:10027000000001000000000000010001000000007B
:1002800000FA36FFBC308E0005FBF0FFD95BC8FFDB
:10029000D09ABE000010A9FFF41EB200CEBBF7003A
:1002A00000000100000004000200020200000CFF38
:1002B000C280000001800000CF80004000000000EC
:1002C0000000010000000000000600000000140013
:1002D000000000000000000000000000000000001E
:1002E000000000000000000000000000000000000E
:1002F00000000000000000000000000000000000FE
:10030000000000033F68B6793528BCC67ED16C80FA
:10031000000000400000000000B26A000000000081
:100320000000000000000000003FF000000030006E
:1003300000000000000000000000000000000000BD
:1003400000000000000000000000000000000000AD
:1003500000254D002F706D000005AE000C02D0008E
:1003600000000000650054FFEF00000000000000E6
:100370000001000044000000000C0000000100002B
:100380000000000065000000540000FFEF000000C6
:10039000000000000000000000000000000000401D
:1003A000000000000000000000000000000000400D
:1003B000000000000000000000000000000000003D
:1003C000000001000000020000000000000000002A
:1003D000000000000000000000000000000000001D
:1003E000000000000000000000000000000000000D
:1003F0001B000000000000000000000000000000E2
:1004000000000000000000000000000000000000EC
:10041000000000000000000000000040000000009C
:100420001B000000000000000000000000000000B1
:1004300000000000000000000000000000000000BC
:1004400000000000000000000000000000000000AC
:10045000000000000000000000000000000000D8C4
:10046000DCBAA2F1DEB2B8B4A88191F74A907F91CC
:100470006AF3F9DBA8F9B0BAA080F2CE81F3C2F139
:10048000C1F2C3F3CCA2B280F1C6D880BAA7DFDF35
:10049000DFF2A7C3CBC5B6F087A2942448703C9581
:1004A000406834589B78A2F183922D557DD8B1B421
:1004B000B8A1D09180F270F370F27C80A8F101B005
:1004C0009887D943D886C988BAA1F20EB89780F127
:1004D000A9DFDFDFAADFDFDFF2AAC5CDC7A90CC91C
:1004E0002C97979797F1A989264666B0B4BA80AC45
:1004F000DEF2CAF1B28C02A9B69800890E161EB8B7
:10050000A9B4992C547CB08AA896365676F1B9AF26
:10051000B4B083C0B8A89711B18F98B9AFF02408D0
:1005200044106418F1A329557DAF83B593AFF00053
:100530002850F1A3869F61A6DADEDFD9FAA386965A
:10054000DB31A6D9F8DFBAA68FC2C5C7B28CC1B855
:10055000A2DFDFDFA3DFDFDFD8D8F1B8A8B286B42F
:10056000980D355DB8AA98B0872D353DB2B6BAAFB3
:100570008C96198F9FA70E161EB49AB8AA872C5472
:100580007CB9A3DEDFDFA3B180F2C4CDC9F1B8A985
:10059000B499830D355D89B9A32D557DB593A30E0F
:1005A000161EA92C547CB8B4B0F19783A81184A569
:1005B0000998A383F0DA240844106418D8F1A52917
:1005C000557DA58595021A2E3A565A4048F9F3A34F
:1005D000D9F8F098832408441064189782A8F11180
:1005E000F098A2240844106418DAF3DED883A594A6
:1005F00001D9A302F1A2C3C5C7D8F18492A24DDAF2
:100600002AD84869D92AD86855DA32D85071D932EF
:10061000D8705DDA3AD85879D93AD87893A34DDAB8
:100620002AD84869D92AD86855DA32D85071D932CF
:10063000D8705DDA3AD85879D93AD878A88A9AF039
:100640002850789EF38818F19F1D98A8D908D8C81B
:100650009F129EF315A8DA1210D8F1AFC89787340D
:10066000B5B994A421F3D922D8F22DF3D92AD8F21E
:1006700035F3D932D881A4606061D961D86C6869DA
:10068000D969D8747071D971D8B1A384193D5DA3AB
:10069000831A3E5E931030811011B8B0AF8F94F280
:1006A000DA3ED8B49AA88729DAF8D8879A35DAF8E2
:1006B000D8879A3DDAF8D8B1B9A49885022E56A504
:1006C00081000C14A397B08AF12DD928D84DD948B0
:1006D000D86DD968D8B1840DDA0ED8A32983DA2C65
:1006E0000ED8A3844983DA2C4C0ED8B8B0A88A9AC5
:1006F000F520AADADFD8A840AAD0DADED8A860AA06
:10070000DAD0DFD8F19786A8319B069907AB9728F6
:10071000889BF00C201440B8B0B4A88C9CF004283E
:1007200051791D301438B282ABD0982C5050787863
:100730009BF11AB0F08A9CA82951798B2951798AAA
:100740002470598B2058718A4469388B3940688AE3
:100750006448318B304960A588200971584468117C
:100760003964493019F1AC002C547CF08CA8042871
:100770005078F1889726A85998AC8C02264666F0E6
:10078000899CA8295179247059446938644831A951
:100790008809205970AB11384069A8193148608C1C
:1007A000A83C415C207C00F187981986A86E767E73
:1007B000A999882D557D9EB9A38A228A6E8A568A68
:1007C0005E9FB183062646660E2E4E6E9DB8AD0026
:1007D0002C547CF2B18CB499B9A32D557D8191AC88
:1007E00038AD3AB58391AC2DD928D84DD948D86DBC
:1007F000D968D88C9DAE29D904AED851D904AED8C9
:1008000079D904D881F39DAD008DAE1981ADD901A0
:10081000D8F2AEDA26D88E912983A7D9ADADADAD89
:10082000F32AD8D8F1B0AC89913E5E76F3AC2E2E87
:10083000F1B18C5A9CAC2C2828289CAC3018A89874
:100840008128343C9724A728343C9C24F2B089ACFE
:10085000912C4C6C8A9B2DD9D8D851D9D8D879D91C
:10086000D8D8F19E88A331DAD8D8912DD928D84D7F
:10087000D948D86DD968D8B18393353D8025DAD869
:10088000D88569DAD8D8B49381A328343CF3AB8BEC
:10089000F8A391B609B4D9ABDEFAB0879CB9A3DD51
:1008A000F1A3A3A3A395F1A3A3A39DF1A3A3A3A342
:1008B000F2A3B49080F2A3A3A3A3A3A3A3A3A3A38F
:1008C000B2A3A3A3A3A3A3B087B599F1A3A3A398AD
:1008D000F1A3A3A3A397A3A3A3A3F39BA3A3DCB90F
:1008E000A7F1262626D8D8FF4E1511241FBECFEF1C
:1008F000D0E1DEBFCDBF12E0A0E0B1E0E0E2F5E381
:1009000000E00BBF02C007900D92A038B107D9F7E5
:1009100023E0A0E8B2E001C01D92A330B207E1F7E6
:1009200018E0CAEED8E000E006C022970109FE01F7
:100930000BBF0E94B815C83ED10780E00807A9F791
:100940000E94E6140C948E1A0C940000689420F80F
:10095000DB9A0895EFE9FFE03197F1F700C000005E
:1009600001970097B9F708951F920F920FB60F9253
:1009700011240BB60F928F93EF93FF93CF93DF93D6
:1009800000D0CDB7DEB780919B008A8380919C0018
:1009900089838A818C71E1F4E091E002F0E0898141
:1009A000EF51FD4F80838091E0028F5F8093E002E2
:1009B000803111F41092E0028091DE028F5F80930B
:1009C000DE02803129F41092DE0281E08093DD02A4
:1009D0000F900F90DF91CF91FF91EF918F910F903A
:1009E0000BBE0F900FBE0F901F9018958CED95E0E9
:1009F0009BBD8ABD99BD88BD909379008093780096
:100A00000895FC01109285001092840010928700D6
:100A1000109286001082118212821382089577FF4D
:100A200009C0719561957109709385006093840088
:100A30001D9805C070938500609384001D9A57FF30
:100A400009C0519541955109509387004093860004
:100A50001A98089550938700409386001A9A089533
:100A600013BE10BEC4980895AB014D5751094439C7
:100A70005642C0F5683E83E0780758F08BE183BFAB
:100A800012BE9B0140E050E060E970ED83E090E031
:100A90001CC0643F21E0720758F08CE183BF12BE96
:100AA0009B0140E050E068E478EE81E090E00DC00A
:100AB0006A3F710570F08DE183BF12BE9B0140E07B
:100AC00050E06CEA77E081E090E00E94961521BF4B
:100AD00008958EE183BF12BE86ED93E80E946E15E5
:100AE00061BF08950C9430050F931F93CF93DF934C
:100AF000EC018A010E943405C8010E94AA04CE01BB
:100B0000DF91CF911F910F910C943005CF93DF931C
:100B1000EC0144E650E068EE73E00E94740544E1A5
:100B200050E064EF71E0CE010E94740542E350E0B2
:100B300068EB7BE0CE010E94740544E150E064EF75
:100B400071E0CE010E94740544E650E068EB7BE062
:100B5000CE010E94740544E150E064EF71E0CE01E3
:100B60000E94740542E350E060ED77E0CE01DF9132
:100B7000CF910C947405CF93DF93EC0144E650E0E1
:100B800068EB7BE00E94740544E150E064EF71E0A3
:100B9000CE010E94740546E950E064EC79E0CE0194
:100BA0000E94740544E150E064EF71E0CE010E94C0
:100BB000740542E350E068EE73E0CE010E947405D4
:100BC00044E150E064EF71E0CE010E94740542E31D
:100BD00050E068EB7BE0CE01DF91CF910C9474057F
:100BE000CF93DF93EC014AEF50E060ED77E00E9495
:100BF00074052FEF89E698E1215080409040E1F79D
:100C000000C000004AEF50E060ED77E0CE010E94A6
:100C100074052FEF89E698E1215080409040E1F77C
:100C200000C000004AEF50E060ED77E0CE01DF91B8
:100C3000CF910C947405607F64606BBB85E08A95EE
:100C4000F1F70000DA980895D898862F807F20FE6B
:100C500002C08C6001C084608BBB85E08A95F1F78F
:100C60000000DA989AE19A95F1F700C070E0E4E0AC
:100C7000660F771FEA95E1F720FE02C06C6001C0A5
:100C800064606BBB85E08A95F1F70000DA988FEE1F
:100C90009AE00197F1F700C00000DA9A0895D89A17
:100CA000862F807F20FE02C08D6001C085608BBBD7
:100CB00085E08A95F1F70000DA988AE18A95F1F7E4
:100CC00000C070E0F4E0660F771FFA95E1F720FEB0
:100CD00002C06D6001C065606BBB85E08A95F1F76D
:100CE0000000DA9885ED8A95F1F70000DA9A089508
:100CF000CF93DF93EC012FEF80E792E0215080400B
:100D00009040E1F700C0000060E3CE010E941B06A6
:100D10008FE19EE40197F1F700C0000060E3CE018F
:100D20000E941B068FE99FE00197F1F700C00000C9
:100D300060E3CE010E941B068FE99FE00197F1F767
:100D400000C0000060E2CE010E941B0668E2CE01F6
:100D50000E94240660E1CE010E94240666E0CE01D6
:100D60000E9424066CE0CE010E94240661E0CE01C0
:100D70000E9424068FE39FE10197F1F700C0000075
:100D8000DF91CF910895411102C0605801C06054B5
:100D90000C9424060F931F93CF93DF938C01EB01E8
:100DA0006991662321F0C8010E944F06F9CFDF91B7
:100DB000CF911F910F9108950F931F93CF93DF93BE
:100DC000EC018A01462F60E00E94C306B801CE0103
:100DD000DF91CF911F910F910C94CA0661E00E94A0
:100DE00024068FE39FE10197F1F700C0000008950A
:100DF0001F93CF93DF93EC01462F60E00E94C30660
:100E000010E160E2CE010E944F061150D1F7DF9150
:100E1000CF911F910895CF92DF92FF920F931F936E
:100E2000CF93DF931F92CDB7DEB78C01F42E462F00
:100E300060E059830E94C306CF2C5981D52EF12C36
:100E4000F60161916F01C8010E944F06FFE728E398
:100E500081E0F15020408040E1F700C00000F394B1
:100E600090E1F912EDCF0F90DF91CF911F910F918B
:100E7000FF90DF90CF900895CF92DF92EF92FF9294
:100E80000F931F93CF93DF93EC017B01CB0164E6BB
:100E900070E00E946E156C01605DCE010E944F06ED
:100EA0000AE010E0C601B8010E946E15605DCE0137
:100EB0000E944F06C701B8010E946E1560E3680FDB
:100EC000CE01DF91CF911F910F91FF90EF90DF90B6
:100ED000CF900C944F060F931F93CF93DF93EC01A9
:100EE000CB0168EE73E00E946E158C01605DCE014F
:100EF0000E944F06B801CE01DF91CF911F910F9153
:100F00000C943C070F931F93CF93DF93EC01CB011D
:100F100060E177E20E946E158C01605DCE010E9457
:100F20004F06B801CE01DF91CF911F910F910C9424
:100F30006B074F925F926F927F92BF92CF92DF9238
:100F4000EF92FF920F931F93CF93DF93EC016A010F
:100F50007B01B22ECB01BA010E94EF162B013C019E
:100F60008B0120E030E0A901C701B6010E94831681
:100F700087FF0FC00027112704191509F7FAF0940D
:100F8000F7F8F0946DE282ED92E00E944F06712C2A
:100F900002C077247394003127E212072CF0B801C5
:100FA000CE010E94820728C0083E83E018072CF07B
:100FB000B801CE010E946B071FC0043611052CF04A
:100FC000B801CE010E943C0717C00A3050F0C8019A
:100FD0006AE070E00E948215605D82ED92E00E94FE
:100FE0004F06C8016AE070E00E94821560E3680F56
:100FF00082ED92E00E944F068FEF8B0D853008F056
:1010000067C06EE282ED92E00E944F06B801882729
:1010100077FD8095982F0E9422179B01AC01C70194
:10102000B6010E94BC1523E0B216C9F12B15C8F019
:1010300022E0B21240C020E030E048EC52E40E94CE
:1010400002180E94F416862F6AE00E946215C92FCA
:1010500060E3680F82ED92E00E944F0660E36C0F40
:1010600033C024E0B21679F025E0B21224C020E0AB
:1010700030E543EC57E40E9402180E94F416CE01BA
:101080000E94820725C020E030E44CE156E40E9433
:1010900002180E94F416CE010E946B0719C020E0CE
:1010A00030E04AE754E40E9402180E94F416CE0190
:1010B0000E943C070DC020E030E040E251E40E9475
:1010C00002180E94F416605D82ED92E00E944F06C5
:1010D000772091F060E282ED92E0DF91CF911F9155
:1010E0000F91FF90EF90DF90CF90BF907F906F9027
:1010F0005F904F900C944F06DF91CF911F910F910D
:10110000FF90EF90DF90CF90BF907F906F905F90B7
:101110004F90089561110C94A604E89420F8DB9890
:101120000895689422F8606267B985E38A95F1F7BB
:101130000000369A349BFECF349AE89422F885B1A9
:10114000089522FCFFCF60E00E9491082EE5829F67
:10115000C001112463E170E00E948215CB01089563
:1011600022FC54C060E00E949108833808F04EC011
:10117000F89440E050E060E070E084ED92E00E947E
:101180000F0582ED92E00E94EE0648E051E060E03B
:1011900082ED92E00E94DC0649E151E061E082EDDF
:1011A00092E00E94DC0644E650E060ED77E083EDDB
:1011B00092E00E9474052FEF81EE94E02150804070
:1011C0009040E1F700C0000044E650E060ED77E0B9
:1011D00083ED92E00E9474052FEF85EA9EE0215096
:1011E00080409040E1F700C000000E94A6042FEF6D
:1011F00089E698E1215080409040E1F700C000006E
:1012000060E082ED92E00E948A08CDCF089584EAE2
:10121000809374008091740087FFFCCF80917100EF
:10122000887F883011F0803199F46093730084E8EE
:10123000809374008091740087FFFCCF90917100BF
:10124000987F983119F081E0903419F480E0089586
:1012500081E0089584E9809374008091740084FD96
:10126000FCCF08956093730084E8809374008091AC
:10127000740087FFFCCF90917100987F81E09832D5
:1012800009F480E0089584EC8093740080917400E8
:1012900087FFFCCF80917300089584E880937400E9
:1012A0008091740087FFFCCF809173000895AF9206
:1012B000BF92CF92DF92EF92FF920F931F93CF9343
:1012C000DF931F92CDB7DEB75C01F62EC22E4983A5
:1012D0000E9407094981642FC5010E9432098AE1F1
:1012E0008A95F1F700C06F2D6160C5010E94070962
:1012F000CA94D12C8D2D90E07801E80EF91EC5011D
:10130000DC1003C00E944D0902C00E944309F7018E
:101310008083D394CD1470F7C5010F90DF91CF91E6
:101320001F910F91FF90EF90DF90CF90BF90AF9003
:101330000C942A090F931F9321110E9457091F91A2
:101340000F910895CF92DF92FF920F931F93CF9347
:10135000DF931F92CDB7DEB76C01F62E890149836A
:101360000E9407094981642FC6010E9432098AE15F
:101370008A95F1F700C06F2D6160C6010E940709D0
:10138000C6010E944D09F8018083C6010E942A0906
:1013900081E00F90DF91CF911F910F91FF90DF902F
:1013A000CF9008950F931F93CF93DF9300D0CDB7C5
:1013B000DEB78C012A8349830E9407094981642F83
:1013C000C8010E9432092A81622FC8010E94320995
:1013D000C8010F900F90DF91CF911F910F910C9446
:1013E0002A09BF92CF92DF92EF92FF920F931F9341
:1013F000CF93DF931F92CDB7DEB76C01162FB42EBB
:10140000F22E19829E012F5F3F4F0E94A20988236E
:1014100019F12F2D30E0201B31092F5F3F4FE1E004
:10142000F0E002C0EE0FFF1F0A95E2F73197022E9F
:1014300001C0EE0F0A94EAF701C0EE0C2A95EAF714
:101440002E2F209589812823EE212E2B29834B2DA9
:10145000612FC6010E94D2090F90DF91CF911F9199
:101460000F91FF90EF90DF90CF90BF900895AF92D3
:10147000BF92CF92DF92EF92FF920F931F93CF9381
:10148000DF931F92CDB7DEB77C01D22E222319F154
:1014900049830E9407094981642FC7010E943209CC
:1014A000C02E58018A2D8C198D1538F4F5016191E3
:1014B0005F01C7010E943209F5CFC7010F90DF918C
:1014C000CF911F910F91FF90EF90DF90CF90BF9041
:1014D000AF900C942A090F90DF91CF911F910F913B
:1014E000FF90EF90DF90CF90BF90AF900895CF9294
:1014F000DF92EF92FF920F931F93CF93DF931F9290
:10150000CDB7DEB77C01162FD42EC22E9E012F5FE1
:101510003F4F0E94A2098981E1E0F0E00C2C01C05C
:10152000EE0F0A94EAF7002319F0282F2E2B03C0A0
:101530002E2F2095282329834D2D612FC7010E942E
:10154000D2090F90DF91CF911F910F91FF90EF90F3
:10155000DF90CF900895262F49E1FC01608180ED56
:1015600092E00C94D209EF920F93E62E03E025E06F
:101570004AE1FC01608180ED92E00E94F1090F9147
:10158000EF900895EF920F93E62E03E022E04AE1F8
:10159000FC01608180ED92E00E94F1090F91EF90D3
:1015A0000895EF920F93E62E02E024E04BE1FC0158
:1015B000608180ED92E00E94F1090F91EF90089513
:1015C000262F4FE1FC01608180ED92E00C94D2095E
:1015D000262F40E2FC01608180ED92E00C94D2095C
:1015E000262F41E2FC01608180ED92E00C94D2094B
:1015F000262F42E2FC01608180ED92E00C94D2093A
:10160000262F48E3FC01608180ED92E00C94D20922
:101610000F93062F26E04AE6FC01608180ED92E000
:101620000E94770A0F9108950F93062F25E04AE64E
:10163000FC01608180ED92E00E94770A0F9108958D
:101640000F9301E022E04AE6FC01608180ED92E028
:101650000E94770A0F9108950F9301E021E04AE676
:10166000FC01608180ED92E00E94770A0F9108955D
:101670000F9301E027E04BE6FC01608180ED92E0F2
:101680000E94770A0F9108950F93062F26E04BE6EC
:10169000FC01608180ED92E00E94770A0F9108952D
:1016A000EF920F93E62E03E022E04BE6FC0160810F
:1016B00080ED92E00E94F1090F91EF900895CF9391
:1016C000DF93EC01688180ED92E00E94070962E7F8
:1016D00080ED92E00E9432096881616080ED92E0C5
:1016E0000E94070980ED92E00E944309C82F80ED17
:1016F00092E00E944D09D82F80ED92E00E942A09C5
:101700008D2F9C2FDF91CF9108950F931F93242F3E
:101710008B0144E7FC01608180ED92E00E949A0910
:101720001F910F9108950F93062F20E040E0FC01D8
:10173000608180ED92E00E94770A0F9108950F93E7
:10174000062F27E04AE6FC01608180ED92E00E94CE
:10175000770A0F9108950F9301E023E04AE6FC0118
:10176000608180ED92E00E94770A0F9108956F7179
:101770002111606241116064262F4DE6FC016081F9
:1017800080ED92E00C94D209262F4EE6FC01608198
:1017900080ED92E00C94D2095F926F927F928F92CB
:1017A0009F92AF92BF92CF92DF92EF92FF920F93F0
:1017B0001F93CF93DF937C015B016A01622E702E31
:1017C00020E040E0662D0E94B70B602FC7010E9409
:1017D000C40BC0E0D0E0812C99249394CC15DD0596
:1017E00098F5CE014096C816D90618F45C2C5C1A00
:1017F00002C0F0E15F2E252D30E0C4018719910968
:101800008217930714F4572C519485010C0F1D1F58
:10181000252D4FE6F701608180ED92E00E949A0944
:10182000C50DD11D750CCC15DD05C0F6711001C0BC
:10183000639420E040E0662DC7010E94B70B672D3E
:10184000C7010E94C40BCACFDF91CF911F910F91A6
:10185000FF90EF90DF90CF90BF90AF909F908F90D0
:101860007F906F905F9008954F925F926F927F92FA
:101870008F929F92AF92BF92CF92DF92EF92FF92A0
:101880000F931F93CF93DF93CDB7DEB727970FB694
:10189000F894DEBF0FBECDBF9F838E837D836C83A4
:1018A0004A01622E702EE98220E040E0662D0E94FF
:1018B000B70B602F8E819F810E94C40BE980EE20C0
:1018C00029F080E190E00E9468185C01CC2039F09A
:1018D00080E190E00E946818582E492E02C0512CD9
:1018E000412CE12CF12CE814F90408F07FC0C70169
:1018F00040968816990618F4D82CDE1802C0B0E17C
:10190000DB2E4D2D50E080E091E08719910984177E
:10191000950714F4D72CD194EC81FD81EE0DFF1DB9
:10192000CC2059F0852DA52DB42D9A2F981B9D15EF
:1019300030F494919D933196F8CF5E2E4F2E052D65
:10194000142D2D2D4FE6AE81BF816C9180ED92E07C
:101950000E94370AED2DF0E0FB83EA83F981FF2333
:1019600061F1A114B10449F120E040E0662D8E81BF
:101970009F810E94B70B672D8E819F810E94C40BAF
:1019800085012D2D4FE6AE81BF816C9180ED92E0F7
:101990000E949A094A815B81B501852D942D0E9490
:1019A000781A892B51F0C5010E940019CC2059F1F9
:1019B000852D942D0E94001926C0EA81FB81EE0E30
:1019C000FF1E7D0CE814F90408F08DCF711001C0E2
:1019D000639420E040E0662D8E819F810E94B70BCA
:1019E000672D8E819F810E94C40B7DCFF981FF23DB
:1019F00019F0C5010E940019CC2039F0852D942DD5
:101A00000E94001902C080E001C081E027960FB655
:101A1000F894DEBF0FBECDBFDF91CF911F910F9124
:101A2000FF90EF90DF90CF90BF90AF909F908F90FE
:101A30007F906F905F904F900895CF92EF920F93A9
:101A4000CC24C3940E94340C0F91EF90CF90089552
:101A50004F925F926F927F928F929F92AF92BF92BE
:101A6000CF92DF92EF92FF920F931F93CF93DF936A
:101A700000D01F92CDB7DEB74C017B836A832A0169
:101A8000D22E222339F088E090E00E946818182FA7
:101A9000F92E02C010E0F12C612C712C6414750435
:101AA00008F052C0EA81FB81E60DF71DC3010396E1
:101AB0005C01DD20C1F04491F30131968A819B8164
:101AC000E80FF91F0491F3013296E80FF91FE49033
:101AD000E11045C094E0690E711CEA81FB81EA0DBA
:101AE000FB1D84910DC040810181E280EA81FB8170
:101AF000E80FF91FE1100FC084E0680E711C8081AF
:101B00008130D9F422E348E3F401608180ED92E072
:101B10000E94D209C3CF1E2FFF2E6E2C712CC12C18
:101B2000EE24E394242FA301612F7F2DC4010E9492
:101B3000340C6A0C7B1C8111B1CFDD2061F0812F48
:101B40009F2D0E94001907C0DD2039F0812F9F2DA5
:101B50000E94001902C080E022C081E020C06E2CEB
:101B6000712CF2E0FE1548F4B301812F9F2D4983BB
:101B70000E948F19182FF92E4981A12FBF2D80E0C7
:101B800090E02A813B812A0D3B1D8615970528F69A
:101B9000F901E80FF91FE491ED930196F6CF0F904C
:101BA0000F900F90DF91CF911F910F91FF90EF90C9
:101BB000DF90CF90BF90AF909F908F907F906F906D
:101BC0005F904F90089521E00C94280D262F40E758
:101BD000FC01608180ED92E00C94D209262F41E750
:101BE000FC01608180ED92E00C94D2094F925F92EB
:101BF0006F927F928F929F92AF92BF92CF92DF921D
:101C0000EF92FF920F931F93CF93DF9300D000D0FA
:101C100000D0CDB7DEB79E838D83DC011F961C916B
:101C20001F9750960C91B801882777FD8095982FC3
:101C30000E94221720E030E040E858E30E9402189A
:101C40002B013C01ED81FE8163AB74AB85AB96ABA0
:101C500013890489B801882777FD8095982F0E9401
:101C6000221720E030E040E858E30E9402184B01C0
:101C70005C01AD81BE81D7966D937D938D939C93CE
:101C8000DA9757961C91579758960C91B801882768
:101C900077FD8095982F0E94221720E030E040E8E1
:101CA00058E30E9402186B017C01ED81FE8163AF55
:101CB00074AF85AF96AF138D048DB801882777FD7B
:101CC0008095982F0E94221720E030E040E858E3EA
:101CD0000E94021869837A838B839C83ED81FE8145
:101CE000FF9660837183828393830D811E810D5BD8
:101CF0001F4FA3019201C301B2010E9402182B01E0
:101D00003C01A5019401C501B4010E9402189B0188
:101D1000AC01C301B2010E94BD154B015C01A701DA
:101D20009601C701B6010E9402189B01AC01C501D2
:101D3000B4010E94BD156B017C0129813A814B8160
:101D40005C81CA01B9010E9402189B01AC01C70164
:101D5000B6010E94BD159B01AC0160E070E080E01F
:101D600090E40E948716D8016D937D938D939C9388
:101D7000139726960FB6F894DEBF0FBECDBFDF9146
:101D8000CF911F910F91FF90EF90DF90CF90BF9078
:101D9000AF909F908F907F906F905F904F9008953D
:101DA000FC01878D90A195A786A783A194A197A7F1
:101DB00080AB87A190A591AB82AB08954F925F92C3
:101DC0006F927F928F929F92AF92BF92CF92DF924B
:101DD000EF92FF92CF93DF93CDB7DEB72C970FB67C
:101DE000F894DEBF0FBECDBFBC01FC01ED5BFF4F21
:101DF000208131814281538129873A874B875C87D3
:101E0000DC01D3968D919D910D90BC91A02D89837D
:101E10009A83AB83BC83DB01D7962D913D914D9185
:101E20005C91DA972D833E834F835887DB968D90A4
:101E30009D90AD90BC90DE973497C080D180E280B9
:101E4000F38069817A818B819C81905829813A81C4
:101E50004B815C810E9402182B013C012D813E8147
:101E60004F815885CA01B9010E9402189B01AC013B
:101E7000C301B2010E94BD152B013C01A5019401D3
:101E8000C501B4010E9402189B01AC01C301B2015B
:101E90000E94BD152B013C01A7019601C701B601A7
:101EA0000E9402189B01AC01C301B2010E94BC1543
:101EB0009B01AC0169857A858B859C850E940218FF
:101EC00020E030E040E05FE30E9402182B013C017B
:101ED000A501940169817A818B819C810E940218FD
:101EE0004B015C01A70196016D817E818F819885F0
:101EF0000E9402189B01AC01C501B4010E94BC15EF
:101F00009B01AC0169857A858B859C850E940218AE
:101F1000A30192012C960FB6F894DEBF0FBECDBF81
:101F2000DF91CF91FF90EF90DF90CF90BF90AF9077
:101F30009F908F907F906F905F904F900C94301691
:101F40008F929F92AF92BF92CF92EF920F93CF93C7
:101F5000DF93CDB7DEB760970FB6F894DEBF0FBE44
:101F6000CDBF5C010E94380B2FEF86E791E0215036
:101F700080409040E1F700C0000060E0C5010E9491
:101F8000440B21E041E060E1C5010E94B70B66E02F
:101F9000C5010E94C40B20E040E060E0C5010E9442
:101FA000B70B2FE745E2F501608180ED92E00E94DA
:101FB000D20960E0C5010E94140B28E645E2F50154
:101FC000608180ED92E00E94D209C5010E942C0B35
:101FD000FFEF29EF80E0F15020408040E1F700C0A2
:101FE0000000EE24E39400E020E049E857E06FE5CC
:101FF00071E0C5010E941D0D811102C080E07EC10B
:1020000046E750E069EE70E0C5010E94E30D8823C9
:10201000A9F363E0C5010E94500B62E1C5010E9473
:10202000000B64E0C5010E94AB0A61E0C5010E949B
:10203000B30A63E0C5010E94C20A63E0C5010E94C1
:10204000D10A63E0C5010E94E60D60E0C5010E946F
:10205000EE0D60E0C5010E94930B812C912CF401E0
:10206000E654FF4FE491A1E0B0E0AC0FBD1FA80D16
:10207000B11DEC9381E0880D9FEF891A990AE3E086
:10208000E81568F74B8150E09A012E5F3F4F90E0D2
:102090002817390724F7C12CEE24E3940A812981FB
:1020A000BE016C5F7F4FC5010E94340C60E0F401FB
:1020B000E654FF4FE491A1E0B0E0AC0FBD1FA60FC6
:1020C000B11DEC936F5FFFEF8F1A9F0A643078F3B6
:1020D0004B8150E09A012E5F3F4F862F90E02817EA
:1020E00039072CF7C12CEE24E3940A812981BE0123
:1020F0006C5F7F4FC5010E94340CC5010E94200B0C
:10210000C5010E945F0B62E0C5010E94E00A6CE914
:10211000C5010E94F00A60E5C5010E94E80A60E07E
:10212000C5010E94F80AC5010E94200B61E0C501AB
:102130000E94080B61E0C5010E949F0BC5010E942F
:10214000AB0B60E0F401E654FF4FE491A1E0B0E096
:10215000AC0FBD1FA60FB11DEC936F5F2FEF821A5E
:10216000920A643078F34B8150E09A012E5F3F4F22
:10217000862F90E0281739072CF7C12CEE24E39422
:102180000A812981BE016C5F7F4FC5010E94340C1A
:1021900060E0F401E654FF4FE491A1E0B0E0AC0F41
:1021A000BD1FA60FB11DEC936F5F8FEF881A980AC1
:1021B000643078F34B8150E09A012E5F3F4F862FB9
:1021C00090E0281739072CF7C12CEE24E3940A81FC
:1021D0002981BE016C5F7F4FC5010E94340C60E015
:1021E000F401E654FF4FE491A1E0B0E0AC0FBD1F55
:1021F000A60FB11DEC936F5F9FEF891A990A6430A7
:1022000078F34B8150E09A012E5F3F4F862F90E08C
:10221000281739072CF7C12CEE24E3940A81298171
:10222000BE016C5F7F4FC5010E94340CC5010E9446
:102230005F0B0397D8F360E0F401E654FF4FE4919D
:10224000A1E0B0E0AC0FBD1FA60FB11DEC936F5F16
:10225000EFEF8E1A9E0A643078F34B8150E09A01BA
:102260002E5F3F4F862F90E0281739072CF70A8101
:102270002981BE016C5F7F4FC5010E94CC0BC50157
:102280000E945F0B0397D8F3F401E654FF4F60E020
:102290008491A1E0B0E0AC0FBD1FA60FB11D8C93DF
:1022A0006F5F643010F43196F3CF4B8150E09A01A8
:1022B0002E5F3F4F862F90E028173907A4F7C12CD7
:1022C000EE24E3940A812981BE016C5F7F4FC50132
:1022D0000E94340C60E0C5010E949F0BC5010E9462
:1022E000200B61E082ED92E00E94F8064AE251E0A4
:1022F00061E082ED92E00E940B0781E060960FB6EC
:10230000F894DEBF0FBECDBFDF91CF910F91EF905C
:10231000CF90BF90AF909F908F900895E89433F83E
:10232000109285001092840010928700109286000F
:1023300008954F925F926F927F928F929F92AF9289
:10234000BF92CF92DF92EF92FF92CF93DF93EC0197
:1023500033FE11C189E892E00E94DE0E21EE3EE2DA
:1023600045E652E40E9402182DEC3CEC42EC52E4AB
:102370000E94BD154B015C01609382027093830241
:10238000809384029093850220E030E048E452E498
:102390000E94831687FFDFC020E030E048E452EC63
:1023A000C501B4010E94F71718160CF0D4C0209193
:1023B000FB023091FC024091FD025091FE02C501EA
:1023C000B4010E94BD156B017C012DEC3CEC4CEC82
:1023D0005EE30E9402182091F7023091F8024091CA
:1023E000F9025091FA020E94BD152B013C01609345
:1023F000F7027093F8028093F9029093FA028092A8
:10240000FB029092FC02A092FD02B092FE0220E03C
:1024100030E048EC53E40E94F71718162CF480E0E3
:1024200090E0A8ECB3E40EC020E030E048EC53ECC0
:10243000C301B2010E94831687FF0CC080E090E0C8
:10244000A8ECB3EC8093F7029093F802A093F90202
:10245000B093FA0220E030E0A901C701B6010E9462
:1024600083164601570187FF04C0B7FAB094B7F846
:10247000B09420E030E040E151E4C701B6010E9491
:1024800002186B017C016091B8027091B902882733
:1024900077FD8095982F0E9422172B013C012AE09E
:1024A00037ED43EA5CE3C501B4010E9402182AE952
:1024B00039E949E15FE30E94BD159B01AC01C3010D
:1024C000B2010E9402189B01AC01C701B6010E9433
:1024D000BC152091F7023091F8024091F902509119
:1024E000FA020E94BD150E94EF162981332727FDAD
:1024F0003095AB01421B530B620F731FCA0140376B
:102500002EEF520714F480E79EEF60372EEF72072C
:1025100014F460E77EEFAB01613921E0720714F03B
:1025200040E951E0813921E0920714F080E991E01F
:10253000BC0184ED92E0DF91CF91FF90EF90DF90AE
:10254000CF90BF90AF909F908F907F906F905F9053
:102550004F900C940F0540E050E060E070E084ED97
:1025600092E00E940F051092F7021092F80210926A
:10257000F9021092FA02DF91CF91FF90EF90DF9075
:10258000CF90BF90AF909F908F907F906F905F9013
:102590004F9008951F920F920FB60F9211248F93B0
:1025A0009F938091D8029091D9020E9B03C0B09B5B
:1025B00003C005C0B09B03C0F894019602C0F89414
:1025C00001979093D9028093D8028091D6028F5FB1
:1025D0008093D6029F918F910F900FBE0F901F9006
:1025E00018951F920F920FB60F9211248F939F93FD
:1025F0008091DA029091DB020F9B03C0B29B03C073
:1026000005C0B29B03C0F894019702C0F8940196EC
:102610009093DB028093DA028091D7028F5F8093E0
:10262000D7029F918F910F900FBE0F901F9018951A
:102630001F920F920FB60F9211242F938F939F9397
:102640008091F3029091F4020196893E23E0920773
:1026500028F49093F4028093F30204C01092F402E1
:102660001092F3029F918F912F910F900FBE0F90B8
:102670001F9018951F920F920FB60F9211248F93EF
:1026800080910101815080930101811105C082E098
:10269000809301018AEA01C082E08FBD78948F9116
:1026A0000F900FBE0F901F9018951F920F920FB6AC
:1026B0000F9211240BB60F921F932F933F934F93BA
:1026C0005F936F937F938F939F93AF93BF93CF93BA
:1026D000DF93EF93FF93789423FE2DC014E189E8F4
:1026E00092E00E945F0BEC01115011F08C31B8F3B5
:1026F0008C3189F44CE168E972E089E892E00E944B
:10270000850B89E892E00E94F60D89E892E00E942C
:10271000D00EAC980CC08D3120F089E892E00E9478
:10272000200BDD27D0938102C0938002AC9A86E80B
:1027300092E00E949911FF91EF91DF91CF91BF91AB
:10274000AF919F918F917F916F915F914F913F9149
:102750002F911F910F900BBE0F900FBE0F901F90E7
:1027600018951F920F920FB60F9211242F938F93EB
:102770009F93789480910001815009F48AE08093BE
:10278000000180910001843069F08930A9F48091C2
:10279000D6029091F202282F291B2093D402809315
:1027A000F2020AC08091D7029091F102282F291BD2
:1027B0002093D5028093F1029F918F912F910F90DA
:1027C0000FBE0F901F901895EF92FF920F931F93DB
:1027D000CF93DF93E89420F8E89421F8E89422F866
:1027E000E89423F8E89424F81BBA8FEF8ABB95E0AD
:1027F00098BB98EF97BB85BB90EF94BB12BA91BB87
:1028000020EC23B99CE392B910926200109261000F
:10281000809365001092640010BE13BE12BE11BEFC
:102820008AEA8FBD82E18EBD1DBC1CBC88E893E1A5
:1028300097BD86BD8BE085BD14BC8AEF83BD82EF5A
:1028400080938B0081E180938A001092890010921E
:10285000880081E08093810080E98093800010925D
:1028600087001092860010928500109284001092CA
:10287000830088EC8093820010926A0080E58ABF12
:1028800029BF28BF84EA87BF82E080937D00109231
:102890009B0088E980939A0086E080939D001092C7
:1028A000980087E68093990080E888B910BCF89476
:1028B00082ED92E00E9478060E94A60448E052E071
:1028C00060E082ED92E00E94DC0660EC82ED92E036
:1028D0000E94240681ED92E00E94A1088C0164E62A
:1028E00070E00E9482157C01605D82ED92E00E94A2
:1028F0004F066EE282ED92E00E944F06CAE0D0E001
:10290000C701BE010E948215605D82ED92E00E94C7
:102910004F06C801BE010E94821560E3680F82ED78
:1029200092E00E944F0669E172E082ED92E00E941F
:10293000CA0683ED92E00E9486052FEF83EC99E0B2
:10294000215080409040E1F700C0000081ED92E00E
:102950000E94B008E89423F8109271008CE08093F4
:1029600070004FE152E060E082ED92E00E94DC06F0
:1029700089E892E00E94A00F882361F040E352E0D2
:1029800061E082ED92E00E940B0783ED92E00E94ED
:10299000BB0514C041E452E060E082ED92E00E9489
:1029A0000B0742E552E061E082ED92E00E940B07E6
:1029B00083ED92E00E94F0059899FECF7894DF9124
:1029C000CF911F910F91FF90EF9008950E94E41313
:1029D00082ED92E00E94EE0661E089E892E00E94BA
:1029E0009F0B89E892E00E94200B86E892E00E940B
:1029F0008E11689423F81092860243E652E061E05B
:102A000082ED92E00E94DC06C9E36BEC82ED92E07D
:102A10000E9424066C2F82ED92E00E944F062FEF59
:102A200089E698E1215080409040E1F700C0000025
:102A3000C150CF3251F74FE652E061E082ED92E0B3
:102A40000E94DC0648EC50E060ED77E083ED92E018
:102A50000E947405689423F8689433F860E882ED66
:102A600092E00E942406409182025091830260917C
:102A700084027091850222E082ED92E00E94990723
:102A800081ED92E00E94B0082FEF80E792E02150A4
:102A900080409040E1F700C00000E0CF8CED92E074
:102AA0000E94F60484ED92E00E94010580E287B95D
:102AB00084E886B980ED8093890210928702109293
:102AC00086020895991B79E004C0991F961708F0B3
:102AD000961B881F7A95C9F780950895AA1BBB1B82
:102AE00051E107C0AA1FBB1FA617B70710F0A61B0E
:102AF000B70B881F991F5A95A9F780959095BC012F
:102B0000CD01089597FB072E16F4009407D077FDAA
:102B100009D00E946E1507FC05D03EF49095819572
:102B20009F4F0895709561957F4F0895A1E21A2EE9
:102B3000AA1BBB1BFD010DC0AA1FBB1FEE1FFF1F61
:102B4000A217B307E407F50720F0A21BB30BE40BB1
:102B5000F50B661F771F881F991F1A9469F76095F8
:102B60007095809590959B01AC01BD01CF010895B2
:102B70000790F691E02D09945058BB27AA270ED054
:102B8000FCC1EDD130F0F2D120F031F49F3F11F4CF
:102B90001EF4BDC10EF4E095E7FBB3C1E92FFED1F1
:102BA00080F3BA17620773078407950718F071F46A
:102BB0009EF516C20EF4E0950B2EBA2FA02D0B0138
:102BC000B90190010C01CA01A0011124FF27591B72
:102BD00099F0593F50F4503E68F11A16F040A22F78
:102BE000232F342F4427585FF3CF469537952795E9
:102BF000A795F0405395C9F77EF41F16BA0B620BE8
:102C0000730B840BBAF09150A1F0FF0FBB1F661F2E
:102C1000771F881FC2F70EC0BA0F621F731F841F71
:102C200048F4879577956795B795F7959E3F08F097
:102C3000B3CF9395880F08F09927EE0F9795879556
:102C400008958DD158F080E891E009F49EEF8ED17F
:102C500028F040E851E059F45EEF09C058C1C0C106
:102C6000E92FE0789BD168F3092E052AC1F32617D6
:102C700037074807590738F00E2E07F8E02569F0A6
:102C8000E025E0640AC0EF6307F8009407FADB016F
:102C9000B9019D01DC01CA01AD01EF9347D06DD1AF
:102CA0000AD05F91552331F02BED3FE049E450FD10
:102CB00049EC63CF0895DF93DD27B92FBF7740E854
:102CC0005FE31616170648075B0710F4D92F93D158
:102CD0009F938F937F936F93F8D1ECE8F0E01AD134
:102CE0004CD12F913F914F915F9198D1DD2349F0C5
:102CF0009058A2EA2AED3FE049EC5FE3D0785D27E7
:102D00004DDFDF913AC1D9D008F481E008950CD0AD
:102D100034C12CD140F023D130F021F45F3F19F0C1
:102D2000F0C051115EC1F3C039D198F39923C9F3B2
:102D30005523B1F3951B550BBB27AA2762177307C1
:102D4000840738F09F5F5F4F220F331F441FAA1F75
:102D5000A9F333D00E2E3AF0E0E830D09150504035
:102D6000E695001CCAF729D0FE2F27D0660F771FE3
:102D7000881FBB1F261737074807AB07B0E809F0C5
:102D8000BB0B802DBF01FF2793585F4F2AF09E3F5A
:102D9000510568F0B6C025C15F3FECF3983EDCF307
:102DA000869577956795B795F7959F5FC9F7880FD3
:102DB000911D9695879597F90895E1E0660F771F25
:102DC000881FBB1F621773078407BA0720F0621BB6
:102DD000730B840BBA0BEE1F88F7E095089504D0AF
:102DE0006894B111FEC00895E1D088F09F5790F02B
:102DF000B92F9927B751A0F0D1F0660F771F881F20
:102E0000991F1AF0BA95C9F712C0B13081F0E8D015
:102E1000B1E00895E5C0672F782F8827B85F39F0B3
:102E2000B93FCCF3869577956795B395D9F73EF47E
:102E300090958095709561957F4F8F4F9F4F089526
:102E4000E89409C097FB3EF4909580957095619544
:102E50007F4F8F4F9F4F9923A9F0F92F96E9BB27FA
:102E60009395F695879577956795B795F111F8CF76
:102E7000FAF4BB0F11F460FF1BC06F5F7F4F8F4FE1
:102E80009F4F16C0882311F096E911C0772321F0D7
:102E90009EE8872F762F05C0662371F096E8862F6F
:102EA00070E060E02AF09A95660F771F881FDAF7C6
:102EB000880F9695879597F90895990F0008550FF3
:102EC000AA0BE0E8FEEF16161706E807F907C0F0B0
:102ED00012161306E407F50798F0621B730B840BB8
:102EE000950B39F40A2661F0232B242B252B21F492
:102EF00008950A2609F4A140A6958FEF811D811D32
:102F0000089597F99F6780E870E060E008959FEF6B
:102F100080EC0895DF93CF931F930F93FF92EF926E
:102F2000DF927B018C01689405C0DA2EEF0176D028
:102F3000FE01E894A5912591359145915591AEF307
:102F4000EF012CDEFE019701A801DA9479F7DF90FA
:102F5000EF90FF900F911F91CF91DF910895002482
:102F60000A941616170618060906089500240A94EE
:102F700012161306140605060895092E0394000C74
:102F800011F4882352F0BB0F40F4BF2B11F460FF03
:102F900004C06F5F7F4F8F4F9F4F089557FD90582C
:102FA000440F551F59F05F3F71F04795880F97FB0D
:102FB000991F61F09F3F79F08795089512161306C7
:102FC0001406551FF2CF4695F1DF08C016161706F6
:102FD0001806991FF1CF869571056105089408952B
:102FE000E894BB2766277727CB0197F9089565DF1B
:102FF00008F48FEF08959B01AC0160E070E080E879
:103000009FE385CE0BD0B9CFAADF28F0AFDF18F051
:10301000952309F076CF7BCF1124E3CFBFDFA0F358
:10302000959FD1F3950F50E0551F629FF001729F5D
:10303000BB27F00DB11D639FAA27F00DB11DAA1F7C
:10304000649F6627B00DA11D661F829F2227B00DC9
:10305000A11D621F739FB00DA11D621F839FA00D54
:10306000611D221F749F3327A00D611D231F849FA4
:10307000600D211D822F762F6A2F11249F575040FB
:103080008AF0E1F088234AF0EE0FFF1FBB1F661F96
:10309000771F881F91505040A9F79E3F510570F04F
:1030A00030CF9FCF5F3FECF3983EDCF3869577956A
:1030B0006795B795F795E7959F5FC1F7FE2B880F4A
:1030C000911D9695879597F908959B01AC019ACF2C
:1030D000CF93DF938230910510F482E090E0E0918D
:1030E0000103F091020320E030E0A0E0B0E030976F
:1030F00039F14081518148175907B8F048175907ED
:1031000071F482819381109729F013969C938E938A
:1031100012972CC0909302038093010327C02115BE
:10312000310531F04217530718F0A901DB0101C046
:10313000EF019A01BD01DF010280F381E02DD7CFBD
:1031400021153105F9F0281B390B2430310580F4A5
:103150008A819B816115710521F0FB019383828334
:1031600004C09093020380930103FE01329644C091
:10317000FE01E20FF31F81939193225031093983AD
:1031800028833AC02091FF0230910003232B41F4A1
:103190002091040130910501309300032093FF0238
:1031A00020910201309103012115310541F42DB721
:1031B0003EB74091060150910701241B350BE09169
:1031C000FF02F0910003E217F307A0F42E1B3F0B60
:1031D0002817390778F0AC014E5F5F4F2417350789
:1031E00048F04E0F5F1F509300034093FF028193FE
:1031F000919302C0E0E0F0E0CF01DF91CF9108951C
:10320000CF93DF93009709F487C0FC0132971382B4
:103210001282C0910103D0910203209781F4208192
:103220003181280F391F8091FF029091000382178E
:10323000930779F5F0930003E093FF026DC0DE0180
:1032400020E030E0AE17BF0750F412964D915C912C
:1032500013979D014115510509F1DA01F3CFB383AD
:10326000A28340815181840F951F8A179B0771F4B7
:103270008D919C911197840F951F02969183808365
:1032800012968D919C91139793838283211531051A
:1032900029F4F0930203E09301033EC0D901139691
:1032A000FC93EE9312974D915D91A40FB51FEA1711
:1032B000FB0779F480819181840F951F0296D901D3
:1032C00011969C938E938281938113969C938E93F7
:1032D0001297E0E0F0E08A819B81009719F0FE01EF
:1032E000EC01F9CFCE01029628813981820F931F1C
:1032F0002091FF02309100032817390769F43097B5
:1033000029F4109202031092010302C01382128268
:10331000D0930003C093FF02DF91CF9108956F9285
:103320007F928F929F92AF92BF92CF92DF92EF9255
:10333000FF920F931F93CF93DF93EC01CB01209764
:1033400081F4DF91CF911F910F91FF90EF90DF906B
:10335000CF90BF90AF909F908F907F906F900C9484
:103360006818FE01E60FF71F9E0122503109E2178F
:10337000F30708F4ACC0D9010D911C911197061701
:103380001707B8F00530110508F49FC0A801445094
:1033900051094617570708F498C002501109061B37
:1033A000170B019311936D937C93CF010E94001929
:1033B0008CC05B01A01AB10A4E01800E911EA09133
:1033C0000103B0910203612C712C60E070E0109752
:1033D00009F449C0A815B905C9F5ED90FC901197FD
:1033E000670142E0C40ED11CCA14DB0478F1470126
:1033F0008A189B08640142E0C40ED11C1296BC904E
:1034000012971396AC91B5E0CB16D10440F0B2827E
:10341000A38391828082D9018D939C9309C00E5F12
:103420001F4F0E0D1F1DF90111830083EB2DFA2F85
:103430006115710531F0DB011396FC93EE93129741
:1034400044C0F0930203E09301033FC06D917C916F
:1034500011976616770608F43B01BD0112960D9090
:10346000BC91A02DB4CF6091FF027091000368154C
:103470007905E9F468167906D0F44091020150917B
:1034800003014115510541F44DB75EB76091060146
:1034900070910701461B570BE417F507C0F4F09332
:1034A0000003E093FF02F901918380830EC00E9424
:1034B00068187C01009759F0A801BE010E94851A86
:1034C000CE010E940019C70104C0CE0102C080E0F5
:1034D00090E0DF91CF911F910F91FF90EF90DF90DF
:1034E000CF90BF90AF909F908F907F906F900895F6
:1034F000FB01DC0104C08D910190801921F4415041
:103500005040C8F7881B990B0895FB01DC0102C0ED
:1035100001900D9241505040D8F70895F894FFCF94
:103520000A0200000303200056732E426174657284
:1035300065203C20362E35560049736920556C6154
:103540006E672042617465726500496E697420443B
:103550004D502053656C65736169004B616C696205
:10356000726173692053656E736F720053656C6589
:10357000736169203E3E3E3E3E3E3E3E00446968E9
:10358000656E74696B616E203E3E3E3E3E004D6549
:103590007261682D48696A61752D426972750031E2
:1035A0002E5761726E61204D65726168203E3E004B
:1035B00054656B616E20546F6D626F6C20313C3CC2
:1035C00000322E5761726E612048696A6175203E33
:1035D0003E00332E5761726E612042697275203E43
:1035E0003E3E00342E5761726E6120486974616DF1
:1035F000203E3E00204D657261682064616E20426D
:103600006972752000322E5761726E6120426972B4
:103610007520203E3E00332E5761726E612048694E
:1036200074616D203E3E3E00546567616E67616E59
:10363000204261746572653A0020566F6C74004DCB
:1036400050553630353020496E697420444D500055
:10365000494D5520496E6974204F4B203E3E3E3EF9
:1036600000494D5520496E6974204661696C203EC1
:103670003E00436865636B204861726477617265E0
:10368000212100436F756E74696E67203A200042F5
:10369000616C616E63696E672053746172742E0091
:00000001FF
