:100000000C9447000C9476000C9476000C947600C7
:100010000C9476000C9476000C9476000C945C039F
:100020000C9483030C941A040C9476000C94F4033F
:100030000C9476000C9476000C940F040C947600CB
:100040000C9476000C9476000C9476000C94760058
:100050000C9476000C9476000C9476000C94760048
:100060000C9476000C9476000C9476000C94760038
:100070000C94AA030C9476000C941A030C9476004A
:100080000C9476000C9476000C947600C60511242E
:100090001FBECFEFD0E1DEBFCDBF12E0A0E0B1E0E8
:1000A000E6E4FCE000E00BBF02C007900D92A23B2B
:1000B000B107D9F722E0A2EBB2E001C01D92AF3D3B
:1000C000B207E1F710E0CEE8D0E000E006C02297EA
:1000D0000109FE010BBF0E941D06CC38D10780E04C
:1000E0000807A9F70E9417050C9421060C9400003C
:1000F000689420F8DB9A0895EFE9FFE03197F1F773
:1001000000C0000001970097B9F708958BE3809332
:10011000D9028093D8028093D7028093D60280932D
:10012000DA028CED95E09BBD8ABD99BD88BD9093A8
:100130007900809378000895FC0110928500109258
:100140008400109287001092860010821182128221
:100150001382089577FF09C07195619571097093B5
:100160008500609384001D9805C07093850060939E
:1001700084001D9A57FF09C051954195510950932C
:100180008700409386001A98089550938700409303
:1001900086001A9A089513BE10BEC4980895AB0144
:1001A0004D57510944395642C0F5683E83E07807FF
:1001B00058F08BE183BF12BE9B0140E050E060E944
:1001C00070ED83E090E01CC0643F21E0720758F0BE
:1001D0008CE183BF12BE9B0140E050E068E478EE02
:1001E00081E090E00DC06A3F710570F08DE183BF42
:1001F00012BE9B0140E050E06CEA77E081E090E0C5
:100200000E94FB0521BF08958EE183BF12BE86EDDB
:1002100093E80E94D30561BF08950C94CB000F931F
:100220001F93CF93DF93EC018A010E94CF00C80196
:100230000E947C00CE01DF91CF911F910F910C9411
:10024000CB00CF93DF93EC0148EC50E068EE73E015
:100250000E940F0144E150E064EF71E0CE010E9482
:100260000F0144E650E068EB7BE0CE010E940F01F5
:1002700044E150E064EF71E0CE010E940F0148ECD0
:1002800050E068EB7BE0CE010E940F0144E150E0BA
:1002900064EF71E0CE010E940F0144E650E060ED92
:1002A00077E0CE01DF91CF910C940F01607F646005
:1002B0006BBB85E08A95F1F70000DA980895D8982D
:1002C000862F807F20FE02C08C6001C084608BBBC3
:1002D00085E08A95F1F70000DA989AE19A95F1F7AE
:1002E00000C070E084E0660F771F8A95E1F720FE7A
:1002F00002C06C6001C064606BBB85E08A95F1F759
:100300000000DA988FEE9AE00197F1F700C0000044
:10031000DA9A0895D89A862F807F20FE02C08D60D9
:1003200001C085608BBB85E08A95F1F70000DA9803
:100330008AE18A95F1F700C070E094E0660F771FBC
:100340009A95E1F720FE02C06D6001C065606BBB4D
:1003500085E08A95F1F70000DA9885ED8A95F1F746
:100360000000DA9A0895CF93DF93EC012FEF80E736
:1003700092E0215080409040E1F700C0000060E32F
:10038000CE010E9456018FE19EE40197F1F700C073
:10039000000060E3CE010E9456018FE99FE00197C3
:1003A000F1F700C0000060E3CE010E9456018FE922
:1003B0009FE00197F1F700C0000060E2CE010E94CB
:1003C000560168E2CE010E945F0160E1CE010E9409
:1003D0005F0166E0CE010E945F016CE0CE010E94E9
:1003E0005F0161E0CE010E945F018FE39FE1019711
:1003F000F1F700C00000DF91CF910895411102C0D4
:10040000605801C060540C945F010F931F93CF9309
:10041000DF938C01EB016991662321F0C8010E94F2
:100420008A01F9CFDF91CF911F910F9108950F931A
:100430001F93CF93DF93EC018A01462F60E00E9467
:10044000FE01B801CE01DF91CF911F910F910C9465
:10045000050261E00E945F018FE39FE10197F1F7E0
:1004600000C000000895CF92DF92FF920F931F9378
:10047000CF93DF931F92CDB7DEB78C01F42E462FBA
:1004800060E059830E94FE01CF2C5981D52EF12CBA
:10049000F60161916F01C8010E948A01FFE728E31C
:1004A00081E0F15020408040E1F700C00000F3946B
:1004B00090E1F912EDCF0F90DF91CF911F910F9145
:1004C000FF90DF90CF900895EF92FF920F931F93CC
:1004D000CF93DF9300D0CDB7DEB78C01262F7A0102
:1004E0002295220F220F207C205840E1E40EF11CBF
:1004F0003FE0632F620FC80129833A830E945F01A6
:10050000F70162917F01C8010E948A01FFE748E379
:1005100081E0F15040408040E1F700C000003A81A6
:10052000315029813F3F29F70F900F90DF91CF91F4
:100530001F910F91FF90EF90089561110C94780036
:10054000E89420F8DB980895689422F8606267B90F
:1005500085E38A95F1F70000369A349BFECF349AF2
:10056000E89422F885B1089522FCFFCF60E00E9454
:10057000A4022EE5829FC001112463E170E00E9475
:10058000E705CB01089522FC54C060E00E94A4025C
:10059000833808F04EC0F89440E050E060E070E02E
:1005A0008DEC92E00E94AA008BEC92E00E9429025E
:1005B00042E051E060E08BEC92E00E94170243E1E0
:1005C00051E061E08BEC92E00E94170244E650E0BB
:1005D00060ED77E08CEC92E00E940F012FEF81EE4E
:1005E00094E0215080409040E1F700C0000044E6D4
:1005F00050E060ED77E08CEC92E00E940F012FEF6D
:1006000085EA9EE0215080409040E1F700C0000064
:100610000E9478002FEF89E698E1215080409040B9
:10062000E1F700C0000060E08BEC92E00E949D02C8
:10063000CDCF08951F920F920FB60F9211240BB6D3
:100640000F928F93EF93FF93CF93DF9300D0CDB7AB
:10065000DEB780919B008A8380919C0089838A8188
:100660008C71E1F4E091B802F0E08981E754FD4F2C
:1006700080838091B8028F5F8093B802803111F43B
:100680001092B8028091B6028F5F8093B6028031DB
:1006900029F41092B60281E08093B5020F900F907A
:1006A000DF91CF91FF91EF918F910F900BBE0F9043
:1006B0000FBE0F901F9018951F920F920FB60F92BA
:1006C00011248F939F938091D1029091D2020E9B1F
:1006D00003C0B09B03C005C0B09B03C0F894019653
:1006E00002C0F89401979093D2028093D102809136
:1006F000CF028F5F8093CF029F918F910F900FBE9B
:100700000F901F9018951F920F920FB60F92112401
:100710008F939F938091D3029091D4020F9B03C03B
:10072000B29B03C005C0B29B03C0F894019702C0FE
:10073000F89401969093D4028093D3028091D002D2
:100740008F5F8093D0029F918F910F900FBE0F907B
:100750001F9018951F920F920FB60F9211242F938E
:100760008F939F938091DD029091DE02019690938A
:10077000DE028093DD028936910510F59091D90251
:10078000981301C097989091DD028091D802981338
:1007900001C096989091DD028091D702981301C014
:1007A00095989091DD028091D602981301C094989B
:1007B0009091DD028091DA0298130EC0C3980CC0AC
:1007C000893E934048F01092DE021092DD02979A23
:1007D000969A959A949AC39A9F918F912F910F9080
:1007E0000FBE0F901F9018951F920F920FB60F9289
:1007F00011248F9380910101815080930101811117
:1008000005C085E0809301018AEA01C082E08FBDC6
:1008100078948F910F900FBE0F901F9018951F9294
:100820000F920FB60F92112478940F900FBE0F9075
:100830001F9018951F920F920FB60F9211242F93AD
:100840008F939F93789480910001815009F48AE0FE
:100850008093000180910001843069F08930A9F40F
:100860008091CF029091DC02282F291B2093CD028A
:100870008093DC020AC08091D0029091DB02282F85
:10088000291B2093CE028093DB029F918F912F91A1
:100890000F900FBE0F901F901895EF92FF920F933D
:1008A0001F93CF93DF93E89420F8E89421F8E8941D
:1008B00022F81BBA8FEF8ABB95E098BB98EF97BBE5
:1008C00085BB90EF94BB12BA91BB20EC23B99CE39B
:1008D00092B91092620010926100809365001092AC
:1008E000640010BE13BE12BE11BE8AEA8FBD82E143
:1008F0008EBD1DBC1CBC80EA9FE097BD86BD8BE011
:1009000085BD14BC8AEF83BD82EF80938B0081E1AB
:1009100080938A00109289001092880081E0809371
:10092000810080E9809380001092870010928600F9
:1009300010928500109284001092830088EC8093BE
:10094000820010926A0080E58ABF29BF28BF84EA2E
:1009500087BF82E080937D0010929B0088E980939E
:100960009A0086E080939D001092980087E680931D
:10097000990080E888B910BCF8948BEC92E00E9452
:10098000B3010E94780041EF51E060E08BEC92E00F
:100990000E94170260EC8BEC92E00E945F018AECEF
:1009A00092E00E94B4028C0164E670E00E94E705C8
:1009B0007C01605D8BEC92E00E948A016EE28BEC20
:1009C00092E00E948A01CAE0D0E0C701BE010E9405
:1009D000E705605D8BEC92E00E948A01C801BE01D0
:1009E0000E94E70560E3680F8BEC92E00E948A01A9
:1009F00062E072E08BEC92E00E9405028CEC92E0E7
:100A00000E9421012FEF83ED90E321508040904020
:100A1000E1F700C000008AEC92E00E94C3027894E3
:100A2000DF91CF911F910F91FF90EF9008950E9459
:100A30004D048BEC92E00E94290248E052E060E015
:100A40008BEC92E00E94640249E152E061E08BECA1
:100A500092E00E9433028CEC92E00E942101FEE4BD
:100A60009F2EA0E65A2EC0E6D9E0B9E27B2E1AE10D
:100A7000C12E14E0D12E07E1602E88E5A82E82E079
:100A8000B82E9BE3892E0EE917E02CEDE22E25E02F
:100A9000F22E9B991CC06092D9026092DA02709289
:100AA000D802DBBCCABC8092D702F9BCE8BC9092E9
:100AB000D60210937900009378004AE252E060E099
:100AC0008BEC92E00E9417024BE352E059C09A99D6
:100AD0001CC07092D9027092DA028092D802FBBCDC
:100AE000EABC9092D70219BD08BD5092D602D093AD
:100AF0007900C09378004CE452E060E08BEC92E027
:100B00000E9417024DE552E03BC099991CC08092AB
:100B1000D9028092DA029092D8021BBD0ABD50928F
:100B2000D702D9BDC8BD8092D602F0927900E0927A
:100B300078004EE652E060E08BEC92E00E941702F3
:100B40004FE752E01DC09899A4CF9092D90290929D
:100B5000DA025092D802DBBDCABD7092D702D9BC6E
:100B6000C8BC6092D602B0927900A092780040E9A9
:100B700052E060E08BEC92E00E94170241EA52E002
:100B800061E08BEC92E00E94170283CF85ED92E04A
:100B90000E9486008DEC92E00E949C0080E287B962
:100BA00084E886B90895AA1BBB1B51E107C0AA1FA0
:100BB000BB1FA617B70710F0A61BB70B881F991FFE
:100BC0005A95A9F780959095BC01CD01089597FBA2
:100BD000072E16F4009407D077FD09D00E94D305A4
:100BE00007FC05D03EF4909581959F4F0895709530
:100BF00061957F4F0895A1E21A2EAA1BBB1BFD0130
:100C00000DC0AA1FBB1FEE1FFF1FA217B307E407EB
:100C1000F50720F0A21BB30BE40BF50B661F771F43
:100C2000881F991F1A9469F7609570958095909523
:100C30009B01AC01BD01CF0108950790F691E02D15
:060C40000994F894FFCFB7
:100C46000A0556732E426174657265203C20362E65
:100C560035560049736920556C616E672042617490
:100C6600657265004B616C696272617369205365D8
:100C76006E736F720053656C65736169203E3E3E0C
:100C86003E3E3E3E3E00446968656E74696B616E29
:100C9600203E3E3E3E3E004D657261682D48696AC3
:100CA60061752D4269727500312E5761726E612031
:100CB6004D65726168203E3E0054656B616E20543E
:100CC6006F6D626F6C20313C3C00322E5761726E44
:100CD600612048696A6175203E3E00332E57617275
:100CE6006E612042697275203E3E3E00342E576189
:100CF600726E6120486974616D203E3E00204D652C
:100D06007261682064616E20426972752000322E1D
:100D16005761726E61204269727520203E3E003333
:100D26002E5761726E6120486974616D203E3E3EA9
:100D360000546567616E67616E2042617465726515
:100D46003A0020566F6C740054656B616E205075C6
:100D56007368427574746F6E0041747572506F7368
:100D660069736920536572766F00506F7369736992
:100D760020536572766F20233120003020202034E6
:100D8600352020203930202031333500506F7369EB
:100D9600736920536572766F202332200034352024
:100DA6002020393020203133352031383000506F43
:100DB6007369736920536572766F20233320003977
:100DC6003020203133352020313830202039300092
:100DD600506F7369736920536572766F20233420D0
:100DE6000031333520203138302020343520202082
:020DF6003000CB
:00000001FF
