:100000000C9447000C9476000C9476000C947600C7
:100010000C9476000C9476000C9476000C94A50851
:100020000C94CC080C943B090C9476000C941509A4
:100030000C9476000C9476000C9430090C947600A5
:100040000C9476000C9476000C9476000C94760058
:100050000C9476000C9476000C9476000C94760048
:100060000C9476000C9476000C9476000C94760038
:100070000C94F3080C9476000C9486000C94760093
:100080000C9476000C9476000C947600F20A1124FD
:100090001FBECFEFD0E1DEBFCDBF12E0A0E0B1E0E8
:1000A000EEE9F6E100E00BBF02C007900D92AC3321
:1000B000B107D9F722E0ACE3B2E001C01D92AA3645
:1000C000B207E1F710E0CEE8D0E000E006C02297EA
:1000D0000109FE010BBF0E94490BCC38D10780E01B
:1000E0000807A9F70E94640A0C944D0B0C940000B9
:1000F000689420F8DB9A0895EFE9FFE03197F1F773
:1001000000C0000001970097B9F708951F920F9261
:100110000FB60F9211240BB60F928F93EF93FF93AC
:10012000CF93DF9300D0CDB7DEB780919B008A8359
:1001300080919C0089838A818C71E1F4E091510265
:10014000F0E08981EE5AFD4F8083809151028F5FEC
:1001500080935102803111F41092510280914F022C
:100160008F5F80934F02803129F410924F0281E01B
:1001700080934E020F900F90DF91CF91FF91EF91FE
:100180008F910F900BBE0F900FBE0F901F90189580
:1001900020914F022223C9F0E89421F8E091500207
:1001A000F0E0EE5AFD4F8081909150029F5F909356
:1001B0005002903111F410925002F89490914F0235
:1001C000915090934F027894089525E02A95F1F785
:1001D000000001970097E1F6689421F880E0089507
:1001E00090919B0095FFFCCF80939C0008958CED2F
:1001F00095E09BBD8ABD99BD88BD909379008093A1
:1002000078000895FC0110821182109285001092EE
:10021000840010928700109286001282138214824A
:1002200015820895E89423F877FF09C071956195C8
:10023000710970938500609384001D9805C07093C8
:100240008500609384001D9A57FF09C05195419520
:10025000510950938700409386001A98089550934F
:100260008700409386001A9A0895689423F8FC0149
:1002700010821182109285001092840010928700E3
:10028000109286000895FC01318113166CF583816C
:10029000381BF8E03F02C001112420916902230FAE
:1002A000293214F028E203C0283D0CF428ED2093F5
:1002B0006902209169023AE02302800D911D112408
:1002C0008139E1E09E071CF080E991E003C0181637
:1002D00019062CF49093870080938600089510925D
:1002E0008700109286000895109287001092860071
:1002F000109269020895FC01308113166CF5828119
:10030000381BF8E03F02C001112420916802230F3E
:10031000293214F028E203C0283D0CF428ED209384
:100320006802209168023AE02302800D911D112499
:100330008139E1E09E071CF080E991E003C01816C6
:1003400019062CF4909385008093840008951092F0
:100350008500109284000895109285001092840008
:1003600010926802089513BE10BEC4980895AB01A0
:100370004D57510944395642C0F5683E83E078072D
:1003800058F08BE183BF12BE9B0140E050E060E972
:1003900070ED83E090E01CC0643F21E0720758F0EC
:1003A0008CE183BF12BE9B0140E050E068E478EE30
:1003B00081E090E00DC06A3F710570F08DE183BF70
:1003C00012BE9B0140E050E06CEA77E081E090E0F3
:1003D0000E94270B21BF08958EE183BF12BE86EDD8
:1003E00093E80E94FF0A61BF08950C94B3010F9334
:1003F0001F93CF93DF93EC018A010E94B701C801DC
:100400000E947C00CE01DF91CF911F910F910C943F
:10041000B301CF93DF93EC0148EC50E068EE73E05A
:100420000E94F70142E350E064EF71E0CE010E94C8
:10043000F70144E650E068EB7BE0CE010E94F70153
:1004400042E350E064EF71E0CE010E94F70148EC16
:1004500050E068EB7BE0CE010E94F70142E350E000
:1004600064EF71E0CE010E94F70144E650E060EDD8
:1004700077E0CE01DF91CF910C94F701607F64604B
:100480006BBB85E08A95F1F70000DA980895D8985B
:10049000862F807F20FE02C08C6001C084608BBBF1
:1004A00085E08A95F1F70000DA989AE19A95F1F7DC
:1004B00000C070E0E4E0660F771FEA95E1F720FEE8
:1004C00002C06C6001C064606BBB85E08A95F1F787
:1004D0000000DA988FEE9AE00197F1F700C0000073
:1004E000DA9A0895D89A862F807F20FE02C08D6008
:1004F00001C085608BBB85E08A95F1F70000DA9832
:100500008AE18A95F1F700C070E0F4E0660F771F8A
:10051000FA95E1F720FE02C06D6001C065606BBB1B
:1005200085E08A95F1F70000DA9885ED8A95F1F774
:100530000000DA9A0895CF93DF93EC012FEF80E764
:1005400092E0215080409040E1F700C0000060E35D
:10055000CE010E943E028FE19EE40197F1F700C0B8
:10056000000060E3CE010E943E028FE99FE0019708
:10057000F1F700C0000060E3CE010E943E028FE967
:100580009FE00197F1F700C0000060E2CE010E94F9
:100590003E0268E2CE010E94470260E1CE010E9465
:1005A000470266E0CE010E9447026CE0CE010E9445
:1005B000470261E0CE010E9447028FE39FE101976D
:1005C000F1F700C00000DF91CF910895411102C002
:1005D000605801C060540C9447020F931F93CF934F
:1005E000DF938C01EB016991662321F0C8010E9421
:1005F0007202F9CFDF91CF911F910F9108950F9360
:100600001F93CF93DF93EC018A01462F60E00E9495
:10061000E602B801CE01DF91CF911F910F910C94AA
:10062000ED0261E00E9447028FE39FE10197F1F73D
:1006300000C0000008950F931F93CF93DF93EC0148
:10064000162F1295110F110F107C10580FE0602F0C
:10065000610FCE010E94470260E2CE010E94720249
:100660002FE788E391E0215080409040E1F700C0FF
:100670000000015060F7DF91CF911F910F91089515
:10068000FF920F931F93CF93DF93EC01162F1295D8
:10069000110F110F107C105807E0AFE0FA2EF10E89
:1006A000602F610FCE010E94470260E2CE010E94DE
:1006B00072022FE788E391E0215080409040E1F7FB
:1006C00000C000006F2D601BCE010E94470260E257
:1006D000CE010E9472022FE788E391E02150804012
:1006E0009040E1F700C000000150D0F6DF91CF91BB
:1006F0001F910F91FF900895FF920F931F93CF9337
:10070000DF93EC01162F1295110F110F107C10586A
:1007100000E0BFE0FB2EF10E602F610FCE010E94C2
:10072000470260E2CE010E9472022FE788E391E067
:10073000215080409040E1F700C000006F2D601B09
:10074000CE010E94470260E2CE010E9472022FE7B2
:1007500088E391E0215080409040E1F700C0000024
:100760000F5F0830C9F6DF91CF911F910F91FF9075
:100770000895CF92DF92FF920F931F93CF93DF9351
:100780001F92CDB7DEB78C01F42E462F60E059835F
:100790000E94E602CF2C5981D52EF12CF6016191F1
:1007A0006F01C8010E947202FFE728E381E0F15067
:1007B00020408040E1F700C00000F39490E1F9127E
:1007C000EDCF0F90DF91CF911F910F91FF90DF90B0
:1007D000CF900895EF92FF920F931F93CF93DF93E3
:1007E00000D0CDB7DEB78C01262F7A012295220FDB
:1007F000220F207C205840E1E40EF11C3FE0632FE3
:10080000620FC80129833A830E944702F70162916F
:100810007F01C8010E947202FFE748E381E0F150C6
:1008200040408040E1F700C000003A81315029810A
:100830003F3F29F70F900F90DF91CF911F910F91BC
:10084000FF90EF900895AF92BF92CF92DF92EF9218
:10085000FF920F931F93CF93DF931F92CDB7DEB715
:100860008C01262F5A012295220F220F207C20581E
:1008700038E0A30EB11C750187E0D82E9FE0C92E89
:10088000C20E6D2D620FC80129830E944702F50137
:1008900062915F01C8010E947202FFE738E381E0C4
:1008A000F15030408040E1F700C000006C2D6D1920
:1008B000C8010E944702F70161917F01C8010E94AF
:1008C0007202FFE738E381E0F15030408040E1F709
:1008D00000C00000DA9429819FEFD912D2CF0F9087
:1008E000DF91CF911F910F91FF90EF90DF90CF900C
:1008F000BF90AF900895AF92BF92CF92DF92EF92E8
:10090000FF920F931F93CF93DF931F92CDB7DEB764
:100910008C016295660F660F607C60585A012FE06B
:10092000D22ED60E7A0130E1E30EF11C37E0C32E51
:10093000C60E262F220F215F622F6D19C801298351
:100940000E944702F50161915F01C8010E94720295
:10095000FFE738E381E0F15030408040E1F700C02C
:1009600000006D2DC8010E944702F70162917F01CE
:10097000C8010E947202FFE738E381E0F150304085
:100980008040E1F700C00000DA942981DC10D4CF68
:100990000F90DF91CF911F910F91FF90EF90DF901B
:1009A000CF90BF90AF900895EF92FF920F931F9357
:1009B000CF93DF938C01C7E0D0E0E62EF12CC70186
:1009C0000C2E02C0959587950A94E2F780FD02C02F
:1009D00060E301C061E3C8010E947202219778F7C9
:1009E000DF91CF911F910F91FF90EF9008956111CA
:1009F0000C947800E89420F8DB980895689422F825
:100A0000606267B985E38A95F1F70000369A349BF6
:100A1000FECF349AE89422F885B1089522FCFFCFE6
:100A200060E00E94FE042EE5829FC001112463E174
:100A300070E00E94130BCB01089522FC54C060E0CB
:100A40000E94FE04833808F04EC0F89440E050E065
:100A500060E070E083E492E00E94120181E492E0A1
:100A60000E94110342E051E060E081E492E00E94C4
:100A7000FF0243E151E061E081E492E00E94FF0265
:100A800044E650E060ED77E082E492E00E94F701F6
:100A90002FEF81EE94E0215080409040E1F700C0BC
:100AA000000044E650E060ED77E082E492E00E94CE
:100AB000F7012FEF85EA9EE0215080409040E1F75A
:100AC00000C000000E9478002FEF89E698E12150D5
:100AD00080409040E1F700C0000060E081E492E0D7
:100AE0000E94F704CDCF0895CF93DF931F92CDB727
:100AF000DEB7642B862F69830E94F00088E893E1BB
:100B00000E94C8006981861307C088E893E10F90AE
:100B1000DF91CF910C94C80080E00F90DF91CF91CE
:100B200008959B9B02C09899FCCF9B9906C0842F87
:100B3000862B0E94F00081E0089580E00E94F00082
:100B400080E0089581E492E00E94110344E251E0C4
:100B500060E081E492E00C94FF020E94A20545E36C
:100B600051E061E081E492E00C94B9030E94A20597
:100B700046E451E061E081E492E00C94B9030F9304
:100B80001F93CF93DF93EC01162F0E94A2054DEB2C
:100B900051E061E081E492E00E94FF0244EF51E005
:100BA00068EB7BE082E492E00E94F7012FEF83ED97
:100BB00090E3215080409040E1F700C0000081E4C4
:100BC00092E00E941103012F006D802F0E94F0001F
:100BD00048E651E060E081E492E00E94B90349E711
:100BE00051E061E081E492E00E94EA0340ED612F70
:100BF000CE010E949105882309F449C048EC50E0D9
:100C000068EB7BE082E492E00E94F70160E081E41F
:100C100092E00E941B034EEC51E060E081E492E020
:100C20000E94B90340ED612FCE010E9491058823F7
:100C300071F148EC50E068EB7BE082E492E00E94C6
:100C4000F70160E081E492E00E941B034FED51E068
:100C500060E081E492E00E94B90340ED612FCE0193
:100C60000E949105882399F048EC50E068EB7BE006
:100C700082E492E00E94F70188E893E10E94C800B4
:100C8000801305C0CE010E94AD0581E004C0CE01F5
:100C90000E94B60580E0DF91CF911F910F910895DA
:100CA00083E492E00E94350180E492E00C941D05FB
:100CB000609343021D9A409344021A98689423F863
:100CC00080E492E00C941D05FC01138281E0848392
:100CD0008583808186608160808384E690E097834D
:100CE000868310860895F901423079F128F444236F
:100CF00041F04130D9F03EC04330A1F1443059F0C9
:100D000039C010826130B1F16430A1F16230A1F1DB
:100D1000633081F515C081E08083662359F18EEF41
:100D2000860F823038F1613029F50AC0662311F050
:100D3000633019F481E080831DC0643019F410829F
:100D400080E108956230B1F4F5CF611102C01082E4
:100D500013C0643011F0613011F410820BC06330A5
:100D600049F4F5CF662359F36430B9F36130A9F340
:100D7000623069F380E4089580E208950F931F9331
:100D8000CF93DF931F92CDB7DEB78C019E012F5F0B
:100D90003F4F0E947306F8018483998180819923D3
:100DA00011F0826002C08D7FF80180830F90DF9187
:100DB000CF911F910F9108950F931F93CF93DF93BE
:100DC0001F92CDB7DEB78C019E012F5F3F4F0E946F
:100DD0007306F801858399818081992311F08460DD
:100DE00002C08B7FF80180830F90DF91CF911F911C
:100DF0000F910895EF92FF920F931F93CF93DF937C
:100E00001F92CDB7DEB78C017B01FC01638161309D
:100E100019F4F194E194F108F80144818EE392E031
:100E20000E947405282FF801808181FD209560E8DB
:100E300081E492E029830E9447022981622F81E4A4
:100E400092E00E94D4042981203171F190F4243081
:100E500089F138F4223081F188F5213089F587E075
:100E600033C0283019F12C3019F1263049F584E0CF
:100E70002BC0203499F040F4203291F0203391F0CF
:100E80002831F1F480E020C0203831F0203CD9F046
:100E90002036B1F48CEF18C089EF16C08BEF14C068
:100EA0008DEF12C08EEF10C08FEF0EC081E00CC02E
:100EB00082E00AC083E008C085E006C086E004C086
:100EC0008091670201C08AEF80936702F801408534
:100ED000480F80916602542F581B409366022CE203
:100EE00031E05203B001539F700D1124970153E07C
:100EF000369527955A95E1F72B5F3F4F4203C00186
:100F0000439F900D1124680F791FA701461B570BB3
:100F10006E0D7F1D6037FEEF7F0714F460E77EEFF4
:100F200040378EEF580714F440E75EEF4139E1E0B7
:100F30005E0714F040E951E06139F1E07F0714F0F9
:100F400060E971E083E492E00F90DF91CF911F910F
:100F50000F91FF90EF900C941201EF92FF920F937C
:100F60001F93CF93DF93EC018B017A0110924A0219
:100F70001092490210924C0210924B02888180FF1D
:100F800004C084E690E09F838E838B81882389F060
:100F9000F194E194F10828C08E819F818017910718
:100FA00018F40A969F838E836E817F81CE010E9402
:100FB000FA068091490290914A0220914B023091A9
:100FC0004C02820F931F8E159F0534F31AC08E8139
:100FD0009F818017910718F40A969F838E836E81F4
:100FE0007F81CE010E94FA068091490290914A02C7
:100FF00020914B0230914C02820F931FE816F906A4
:1010000034F388818E7F8883DF91CF911F910F9178
:10101000FF90EF9008950F931F93CF93DF93EC0110
:101020008B01888180FF05C084E690E09F838E83DA
:1010300007C08E819F816817790710F47F836E83C4
:101040008E819F818017910718F40A969F838E8363
:101050006E817F81CE010E94FA064D816B818EE305
:1010600092E00E947405988192FD80958770873088
:1010700039F764E670E0CE010E94FA064D816B817B
:101080008EE392E00E947405988192FD80958770AE
:10109000873079F3CE010E94500688818E7F888345
:1010A000DF91CF911F910F910895CF93DF93EC01C2
:1010B0008FE39CE90197F1F700C000004D816B813F
:1010C0008EE392E00E947405988192FD8095837072
:1010D000A9F74D816B818EE392E00E94740598819F
:1010E00092FD80958370A9F3CE010E9450068881FD
:1010F00081608883DF91CF910895CF93DF93EC01D6
:101100000E945806CE01DF91CF910C945508EF92C2
:101110000F931F93CF93DF93EC01142F83E0888705
:10112000A901CE010E94AD07612F70E0CE010E949F
:101130000B084E2D602FCE010E947D081886DF918E
:10114000CF911F910F91EF9008951F920F920FB6BC
:101150000F9211248F939F938091490290914A029C
:101160000E9B03C0B09B03C005C0B09B03C0F894A6
:10117000019602C0F894019790934A028093490225
:10118000809147028F5F809347029F918F910F90CC
:101190000FBE0F901F9018951F920F920FB60F92CF
:1011A00011248F939F9380914B0290914C020F9B3F
:1011B00003C0B29B03C005C0B29B03C0F894019763
:1011C00002C0F894019690934C0280934B02809158
:1011D00048028F5F809348029F918F910F900FBEBE
:1011E0000F901F9018951F920F920FB60F92112417
:1011F0002F938F939F938091640290916502019643
:10120000893E23E0920728F490936502809364025C
:1012100004C010926502109264029F918F912F91E9
:101220000F900FBE0F901F9018951F920F920FB640
:101230000F9211248F9380910101815080930101BD
:10124000811105C085E0809301018AEA01C082E036
:101250008FBD78948F910F900FBE0F901F901895AF
:101260001F920F920FB60F92112478940F900FBE19
:101270000F901F9018951F920F920FB60F92112486
:101280000BB60F922F933F934F935F936F937F9380
:101290008F939F93AF93BF93EF93FF937894809135
:1012A0000001815009F48AE08093000180910001DF
:1012B0008430D1F018F4833011F127C0883069F000
:1012C000893019F58091470290916302282F291BDC
:1012D000209345028093630218C023FE16C083E466
:1012E00092E00E947B0111C08091480290916202BD
:1012F000282F291B209346028093620206C023FEFA
:1013000004C083E492E00E944301FF91EF91BF91FA
:10131000AF919F918F917F916F915F914F913F918D
:101320002F910F900BBE0F900FBE0F901F9018952E
:10133000EF92FF920F931F93CF93DF93E89420F8DF
:10134000E89421F8E89422F8E89423F81BBA8FEF88
:101350008ABB95E098BB98EF97BB85BB90EF94BB99
:1013600012BA91BB20EC23B99CE392B910926200AF
:1013700010926100809365001092640010BE13BE4D
:1013800012BE11BE8AEA8FBD82E18EBD1DBC1CBC9F
:1013900080EA9FE097BD86BD8BE085BD14BC8AEFD7
:1013A00083BD82EF80938B0081E180938A0010924D
:1013B00089001092880081E08093810080E9809309
:1013C0008000109287001092860010928500109283
:1013D00084001092830088EC8093820010926A004F
:1013E00080E58ABF29BF28BF84EA87BF82E0809357
:1013F0007D0010929B0088E980939A0086E080939C
:101400009D001092980087E68093990080E888B943
:1014100010BCF89481E492E00E949B020E94780044
:1014200041EF51E060E081E492E00E94FF0260EC55
:1014300081E492E00E94470280E492E00E940E055F
:101440008C0164E670E00E94130B7C01605D81E416
:1014500092E00E9472026EE281E492E00E947202C7
:10146000CAE0D0E0C701BE010E94130B605D81E4B9
:1014700092E00E947202C801BE010E94130B60E359
:10148000680F81E492E00E94720262E072E081E4FF
:1014900092E00E94ED0282E492E00E9409022FEFA6
:1014A00083EC99E0215080409040E1F700C00000BB
:1014B00080E492E00E941D057894DF91CF911F9106
:1014C0000F91FF90EF900895CF93DF93CDB7DEB7E4
:1014D00029970FB6F894DEBF0FBECDBF0E949809C2
:1014E00081E492E00E941103CE0101960E946406FD
:1014F000989905C060E08EE392E00E94BF0544E049
:1015000060E0CE0101960E94BE0644E060E0CE019C
:1015100001960E94DC061C8248E052E060E081E413
:1015200092E00E947B0449E152E061E081E492E0B4
:101530000E9423042FEF83ED90E3215080409040E0
:10154000E1F700C0000060E081E492E00E947C03CB
:1015500061E081E492E00E9440034AE252E060E0F0
:1015600081E492E00E94FF0243E352E061E081E403
:1015700092E00E94FF029B9B21C068E881E492E018
:101580000E94470240E460E08EE392E00E9474050E
:10159000682F81E492E00E94D40468EC81E492E038
:1015A0000E94470240E160E08EE392E00E947405F1
:1015B000682F81E492E00E94D404DDCF989B0DC097
:1015C00065E0E62E0FE02AEF30E044E668EC70E0DC
:1015D000CE0101960E948708F1CFCE0101960E94AC
:1015E0005006FFCF8DE492E00E94F70083E492E082
:1015F0000E94020180E287B984E886B90895AA1B97
:10160000BB1B51E107C0AA1FBB1FA617B70710F0ED
:10161000A61BB70B881F991F5A95A9F7809590951F
:10162000BC01CD01089597FB072E16F4009407D056
:1016300077FD09D00E94FF0A07FC05D03EF4909583
:1016400081959F4F0895709561957F4F0895A1E210
:101650001A2EAA1BBB1BFD010DC0AA1FBB1FEE1F2C
:10166000FF1FA217B307E407F50720F0A21BB30B77
:10167000E40BF50B661F771F881F991F1A9469F7F3
:1016800060957095809590959B01AC01BD01CF014F
:0E16900008950790F691E02D0994F894FFCF8D
:10169E000A0556732E426174657265203C20362E03
:1016AE0035560049736920556C616E67204261742E
:1016BE00657265004B616C69627261736920536576
:1016CE006E736F720053656C65736169203E3E3EAA
:1016DE003E3E3E3E3E00446968656E74696B616EC7
:1016EE00203E3E3E3E3E004D657261682D48696A61
:1016FE0061752D4269727500312E5761726E6120CF
:10170E004D65726168203E3E0054656B616E2054DB
:10171E006F6D626F6C20313C3C00322E5761726EE1
:10172E00612048696A6175203E3E00332E57617212
:10173E006E612042697275203E3E3E00342E576126
:10174E00726E6120486974616D203E3E00204D65C9
:10175E007261682064616E20426972752000322EBB
:10176E005761726E61204269727520203E3E0033D1
:10177E002E5761726E6120486974616D203E3E3E47
:10178E0000546567616E67616E20426174657265B3
:10179E003A0020566F6C74003E3E204164526F69D1
:1017AE00542056312E203C3C004D6F6465204C6910
:1017BE006E652054726163657200532E4D657261C1
:0C17CE00683A00532E42697275203A0000
:00000001FF
