:100000000C9479040C94A8040C94A8040C94A804EF
:100010000C94A8040C94A8040C94A8040C94381311
:100020000C945F130C941F140C94A8040C94A81344
:100030000C94A8040C94A8040C94C3130C94A80466
:100040000C94A8040C94A8040C94A8040C94A80480
:100050000C94A8040C94A8040C94A8040C94A80470
:100060000C94A8040C94A8040C94A8040C94A80460
:100070000C9486130C94A8040C94B8040C94A80453
:100080000C94A8040C94A8040C94A804084AD73B28
:100090003BCE016E84BCBFFDC12F3D6C74319ABD57
:1000A00056833DDA3D00C77F11BED9E4BB4C3E917B
:1000B0006BAAAABE000000803F0001B202FFFF0150
:1000C00090040923A135016A0206000160080000BE
:1000D0000000000000000060044000000001620217
:1000E000000000600400400000037B034CCD6C0363
:1000F000AB0336567600680402CB47A20218040010
:10010000058BC1010C0400000000037F060CC92C04
:10011000979797038903264666006C02200001EC3E
:100120000400004000037F060CC92C979797040237
:10013000030D355D040904872D353D00A301000042
:10014000000001078601FE074105F120283038072D
:1001500046019A074704F1283038076C04F128302B
:10016000380216020000FB00003E000B00360001C2
:1001700000020003000000650054FFEF0000FA8059
:10018000000B1282000100020000000000000000CD
:1001900000000000000000280000FFFF4581FFFF75
:1001A000FA7200000000000003E8000000010001F6
:1001B0007FFFFFFE8001001B000000000000000028
:1001C000000000000000003E03304000000002CAB2
:1001D000E3093E8000002000000000000000400015
:1001E00000006000000041FF000000000B2A00003A
:1001F000165500002182FD872650FD800000001F5B
:100200000000000580000000000000010000000266
:10021000000000030000400000000000046F000226
:10022000653200005EC040000000000000000000D9
:10023000000000000000FB8C6F5DFD5D08D9007CB4
:10024000733B006C12CC3200139D3200D0D63200CA
:100250000800400001F4FFE6807902000000000081
:10026000D0D600002710FB00000040000000000076
:10027000000000000000000000010000000000007D
:100280000100010000000000FA36FFBC308E0005BE
:10029000FBF0FFD95BC8FFD09ABE000010A9FFF4A5
:1002A0001EB200CEBBF700000001000000040002F7
:1002B00000020200000CFFC280000001800000CF9D
:1002C000800040000000000000010000000000006D
:1002D0000600000000140000000000000000000004
:1002E000000000000000000000000000000000000E
:1002F00000000000000000000000000000000000FE
:1003000000000000000000000000033F68B67935DF
:1003100028BCC67ED16C80000000400000000000B8
:10032000B26A0000000000000000000000000000B1
:100330003FF000000030000000000000000000005E
:1003400000000000000000000000000000000000AD
:100350000000000000000000254D002F706D00001F
:1003600005AE000C02D00000000000650054FFEF55
:100370000000000000000000010000440000000038
:100380000C000000010000000000006500000054A7
:100390000000FFEF0000000000000000000000006F
:1003A000000000000000400000000000000000000D
:1003B00000000000000040000000000000000000FD
:1003C000000000000000000000010000000200002A
:1003D000000000000000000000000000000000001D
:1003E000000000000000000000000000000000000D
:1003F000000000000000001B0000000000000000E2
:1004000000000000000000000000000000000000EC
:1004100000000000000000000000000000000000DC
:10042000000040000000001B000000000000000071
:1004300000000000000000000000000000000000BC
:1004400000000000000000000000000000000000AC
:10045000000000000000000000000000000000009C
:10046000000000000000D8DCBAA2F1DEB2B8B4A8E7
:100470008191F74A907F916AF3F9DBA8F9B0BAA0AD
:1004800080F2CE81F3C2F1C1F2C3F3CCA2B280F10B
:10049000C6D880BAA7DFDFDFF2A7C3CBC5B6F08727
:1004A000A2942448703C95406834589B78A2F1830C
:1004B000922D557DD8B1B4B8A1D09180F270F3706F
:1004C000F27C80A8F101B09887D943D886C988BA50
:1004D000A1F20EB89780F1A9DFDFDFAADFDFDFF23C
:1004E000AAC5CDC7A90CC92C97979797F1A98926BA
:1004F0004666B0B4BA80ACDEF2CAF1B28C02A9B6DC
:100500009800890E161EB8A9B4992C547CB08AA8FC
:1005100096365676F1B9AFB4B083C0B8A89711B18A
:100520008F98B9AFF0240844106418F1A329557DC1
:10053000AF83B593AFF0002850F1A3869F61A6DA90
:10054000DEDFD9FAA38696DB31A6D9F8DFBAA68F0B
:10055000C2C5C7B28CC1B8A2DFDFDFA3DFDFDFD83F
:10056000D8F1B8A8B286B4980D355DB8AA98B0870E
:100570002D353DB2B6BAAF8C96198F9FA70E161EB9
:10058000B49AB8AA872C547CB9A3DEDFDFA3B1806C
:10059000F2C4CDC9F1B8A9B499830D355D89B9A369
:1005A0002D557DB593A30E161EA92C547CB8B4B05E
:1005B000F19783A81184A50998A383F0DA2408444D
:1005C000106418D8F1A529557DA58595021A2E3AF3
:1005D000565A4048F9F3A3D9F8F0988324084410F8
:1005E00064189782A8F111F098A2240844106418A6
:1005F000DAF3DED883A59401D9A302F1A2C3C5C75B
:10060000D8F18492A24DDA2AD84869D92AD86855F7
:10061000DA32D85071D932D8705DDA3AD85879D9EF
:100620003AD87893A34DDA2AD84869D92AD8685598
:10063000DA32D85071D932D8705DDA3AD85879D9CF
:100640003AD878A88A9AF02850789EF38818F19FB3
:100650001D98A8D908D8C89F129EF315A8DA1210C1
:10066000D8F1AFC8978734B5B994A421F3D922D86B
:10067000F22DF3D92AD8F235F3D932D881A46060AB
:1006800061D961D86C6869D969D8747071D971D829
:10069000B1A384193D5DA3831A3E5E93103081108F
:1006A00011B8B0AF8F94F2DA3ED8B49AA88729DA9D
:1006B000F8D8879A35DAF8D8879A3DDAF8D8B1B9F8
:1006C000A49885022E56A581000C14A397B08AF138
:1006D0002DD928D84DD948D86DD968D8B1840DDA2C
:1006E0000ED8A32983DA2C0ED8A3844983DA2C4CA4
:1006F0000ED8B8B0A88A9AF520AADADFD8A840AAFE
:10070000D0DADED8A860AADAD0DFD8F19786A8318F
:100710009B069907AB9728889BF00C201440B8B033
:10072000B4A88C9CF0042851791D301438B282ABE7
:10073000D0982C505078789BF11AB0F08A9CA82958
:1007400051798B2951798A2470598B2058718A44A8
:1007500069388B3940688A6448318B304960A58894
:10076000200971584468113964493019F1AC002CE2
:10077000547CF08CA804285078F1889726A85998C2
:10078000AC8C02264666F0899CA8295179247059C0
:10079000446938644831A98809205970AB11384040
:1007A00069A8193148608CA83C415C207C00F18725
:1007B000981986A86E767EA999882D557D9EB9A335
:1007C0008A228A6E8A568A5E9FB183062646660E04
:1007D0002E4E6E9DB8AD002C547CF2B18CB499B9FC
:1007E000A32D557D8191AC38AD3AB58391AC2DD90F
:1007F00028D84DD948D86DD968D88C9DAE29D90450
:10080000AED851D904AED879D904D881F39DAD00C2
:100810008DAE1981ADD901D8F2AEDA26D88E9129E4
:1008200083A7D9ADADADADF32AD8D8F1B0AC8991DD
:100830003E5E76F3AC2E2EF1B18C5A9CAC2C28285F
:10084000289CAC3018A8988128343C9724A72834D9
:100850003C9C24F2B089AC912C4C6C8A9B2DD9D84D
:10086000D851D9D8D879D9D8D8F19E88A331DAD837
:10087000D8912DD928D84DD948D86DD968D8B18309
:1008800093353D8025DAD8D88569DAD8D8B49381F4
:10089000A328343CF3AB8BF8A391B609B4D9ABDEF3
:1008A000FAB0879CB9A3DDF1A3A3A3A395F1A3A3F9
:1008B000A39DF1A3A3A3A3F2A3B49080F2A3A3A347
:1008C000A3A3A3A3A3A3A3B2A3A3A3A3A3A3B087F8
:1008D000B599F1A3A3A398F1A3A3A3A397A3A3A35B
:1008E000A3F39BA3A3DCB9A7F1262626D8D8FF0043
:1008F0001E1711241FBECFEFD0E1DEBFCDBF12E027
:10090000A0E0B1E0E0EBF8E300E00BBF02C007902D
:100910000D92A63CB107D9F723E0A6ECB2E001C0E6
:100920001D92AD34B207E1F718E0C2EFD8E000E065
:1009300006C022970109FE010BBF0E948417C03F29
:10094000D10780E00807A9F70E9454150C94561CA3
:100950000C940000689420F8DB9A0895EFE9FFE01A
:100960003197F1F700C0000001970097B9F708959B
:100970001F920F920FB60F9211240BB60F928F9306
:10098000EF93FF93CF93DF9300D0CDB7DEB7809185
:100990009B008A8380919C0089838A818C71E1F419
:1009A000E0913203F0E08981ED5CFC4F808380911F
:1009B00032038F5F80933203803111F4109232033F
:1009C000809130038F5F80933003803129F410923F
:1009D000300381E080932F030F900F90DF91CF9130
:1009E000FF91EF918F910F900BBE0F900FBE0F9064
:1009F0001F9018958CED95E09BBD8ABD99BD88BD73
:100A000090937900809378000895FC0110928500FE
:100A1000109284001092870010928600108211823A
:100A200012821382089577FF09C07195619571094B
:100A300070938500609384001D9805C070938500B5
:100A4000609384001D9A57FF09C051954195510943
:100A500050938700409386001A980895509387001A
:100A6000409386001A9A089513BE10BEC498089544
:100A7000AB014D57510944395642C0F5683E83E0F9
:100A8000780758F08BE183BF12BE9B0140E050E035
:100A900060E970ED83E090E01CC0643F21E07207E4
:100AA00058F08CE183BF12BE9B0140E050E068E447
:100AB00078EE81E090E00DC06A3F710570F08DE145
:100AC00083BF12BE9B0140E050E06CEA77E081E01A
:100AD00090E00E94621721BF08958EE183BF12BE8D
:100AE00086ED93E80E943A1761BF08950C9434058F
:100AF0000F931F93CF93DF93EC018A010E94380577
:100B0000C8010E94AE04CE01DF91CF911F910F91D9
:100B10000C943405CF93DF93EC0144E650E068EE8B
:100B200073E00E94780544E150E064EF71E0CE018B
:100B30000E94780542E350E068EB7BE0CE010E9422
:100B4000780544E150E064EF71E0CE010E94780541
:100B500044E650E068EB7BE0CE010E94780544E17A
:100B600050E064EF71E0CE010E94780542E350E06E
:100B700060ED77E0CE01DF91CF910C947805CF93B3
:100B8000DF93EC0144E650E068EB7BE00E947805DF
:100B900044E150E064EF71E0CE010E94780546E93F
:100BA00050E064EC79E0CE010E94780544E150E029
:100BB00064EF71E0CE010E94780542E350E068EEF8
:100BC00073E0CE010E94780544E150E064EF71E0EB
:100BD000CE010E94780542E350E068EB7BE0CE0155
:100BE000DF91CF910C947805CF93DF93EC014AEF1E
:100BF00050E060ED77E00E9478052FEF89E698E1FC
:100C0000215080409040E1F700C000004AEF50E0E2
:100C100060ED77E0CE010E9478052FEF89E698E13C
:100C2000215080409040E1F700C000004AEF50E0C2
:100C300060ED77E0CE01DF91CF910C947805607F75
:100C400064606BBB85E08A95F1F70000DA9808953F
:100C5000D898862F807F20FE02C08C6001C08460FF
:100C60008BBB85E08A95F1F70000DA989AE19A95B6
:100C7000F1F700C070E0E4E0660F771FEA95E1F756
:100C800020FE02C06C6001C064606BBB85E08A9589
:100C9000F1F70000DA988FEE9AE00197F1F700C0C3
:100CA0000000DA9A0895D89A862F807F20FE02C02D
:100CB0008D6001C085608BBB85E08A95F1F70000EF
:100CC000DA988AE18A95F1F700C070E0F4E0660FE7
:100CD000771FFA95E1F720FE02C06D6001C06560E4
:100CE0006BBB85E08A95F1F70000DA9885ED8A956F
:100CF000F1F70000DA9A0895CF93DF93EC012FEF1C
:100D000080E792E0215080409040E1F700C0000071
:100D100060E3CE010E941F068FE19EE40197F1F788
:100D200000C0000060E3CE010E941F068FE99FE033
:100D30000197F1F700C0000060E3CE010E941F069A
:100D40008FE99FE00197F1F700C0000060E2CE015B
:100D50000E941F0668E2CE010E94280660E1CE01D3
:100D60000E94280666E0CE010E9428066CE0CE01B3
:100D70000E94280661E0CE010E9428068FE39FE1D1
:100D80000197F1F700C00000DF91CF910895411164
:100D900002C0605801C060540C9428060F931F9342
:100DA000CF93DF938C01EB016991662321F0C80199
:100DB0000E945306F9CFDF91CF911F910F910895B3
:100DC0000F931F93CF93DF93EC018A01462F60E0CE
:100DD0000E94C706B801CE01DF91CF911F910F91FC
:100DE0000C94CE0661E00E9428068FE39FE10197F4
:100DF000F1F700C0000008951F93CF93DF93EC013B
:100E0000462F60E00E94C70610E160E2CE010E941A
:100E100053061150D1F7DF91CF911F9108950F9391
:100E20001F93CF93DF93EC01162F1295110F110F23
:100E3000107C10580FE0602F610FCE010E94280631
:100E400060E2CE010E9453062FE788E391E0215033
:100E500080409040E1F700C00000015060F7DF9152
:100E6000CF911F910F910895CF92DF92FF920F9330
:100E70001F93CF93DF931F92CDB7DEB78C01F42E73
:100E8000462F60E059830E94C706CF2C5981D52E8A
:100E9000F12CF60161916F01C8010E945306FFE732
:100EA00028E381E0F15020408040E1F700C00000DD
:100EB000F39490E1F912EDCF0F90DF91CF911F9154
:100EC0000F91FF90DF90CF900895CF92DF92EF9235
:100ED000FF920F931F93CF93DF93EC017B01CB0124
:100EE00064E670E00E943A176C01605DCE010E94DA
:100EF00053060AE010E0C601B8010E943A17605D8F
:100F0000CE010E945306C701B8010E943A1760E360
:100F1000680FCE01DF91CF911F910F91FF90EF905D
:100F2000DF90CF900C9453060F931F93CF93DF93D2
:100F3000EC01CB0168EE73E00E943A178C01605D12
:100F4000CE010E945306B801CE01DF91CF911F91CF
:100F50000F910C9465070F931F93CF93DF93EC01D0
:100F6000CB0160E177E20E943A178C01605DCE010F
:100F70000E945306B801CE01DF91CF911F910F91CE
:100F80000C949407FF920F931F93CF93DF938C01E0
:100F9000EB0177FF08C0D195C195D1096DE20E94A0
:100FA0005306F12C02C0FF24F394BE01C8010E9435
:100FB000AB07FF2051F060E284E293E0DF91CF9134
:100FC0001F910F91FF900C945306DF91CF911F91C9
:100FD0000F91FF9008954F925F926F927F92BF9210
:100FE000CF92DF92EF92FF920F931F93CF93DF93F5
:100FF000EC016A017B01B22ECB01BA010E94BB1841
:101000002B013C018B0120E030E0A901C701B601B2
:101010000E944F1887FF0FC00027112704191509D8
:10102000F7FAF094F7F8F0946DE284E293E00E940E
:101030005306712C02C077247394003127E2120703
:101040002CF0B801CE010E94AB0728C0083E83E017
:1010500018072CF0B801CE010E9494071FC0043677
:1010600011052CF0B801CE010E94650717C00A30A7
:1010700050F0C8016AE070E00E944E17605D84E2A3
:1010800093E00E945306C8016AE070E00E944E1788
:1010900060E3680F84E293E00E9453068FEF8B0DAC
:1010A000853008F067C06EE284E293E00E94530648
:1010B000B801882777FD8095982F0E94EE189B0134
:1010C000AC01C701B6010E94881723E0B216C9F12E
:1010D0002B15C8F022E0B21240C020E030E048EC0E
:1010E00052E40E94CA190E94C018862F6AE00E942A
:1010F0002E17C92F60E3680F84E293E00E94530625
:1011000060E36C0F33C024E0B21679F025E0B21230
:1011100024C020E030E543EC57E40E94CA190E9445
:10112000C018CE010E94AB0725C020E030E44CE19E
:1011300056E40E94CA190E94C018CE010E9494076A
:1011400019C020E030E04AE754E40E94CA190E9426
:10115000C018CE010E9465070DC020E030E040E2DB
:1011600051E40E94CA190E94C018605D84E293E0B5
:101170000E945306772091F060E284E293E0DF91D1
:10118000CF911F910F91FF90EF90DF90CF90BF9084
:101190007F906F905F904F900C945306DF91CF91AA
:1011A0001F910F91FF90EF90DF90CF90BF907F90B5
:1011B0006F905F904F90089561110C94AA04E89489
:1011C00020F8DB980895689422F8606267B985E397
:1011D0008A95F1F70000369A349BFECF349AE89452
:1011E00022F885B1089522FCFFCF60E00E94E30859
:1011F0002EE5829FC001112463E170E00E944E172A
:10120000CB01089522FC54C060E00E94E3088338BB
:1012100008F04EC0F89440E050E060E070E086E2F4
:1012200093E00E94130584E293E00E94F20648E0F6
:1012300051E060E084E293E00E94E00649E151E081
:1012400061E084E293E00E94E00644E650E060ED55
:1012500077E085E293E00E9478052FEF81EE94E03D
:10126000215080409040E1F700C0000044E650E08B
:1012700060ED77E085E293E00E9478052FEF85EA44
:101280009EE0215080409040E1F700C000000E94A5
:10129000AA042FEF89E698E1215080409040E1F7C1
:1012A00000C0000060E084E293E00E94DC08CDCF43
:1012B000089584EA809374008091740087FFFCCFC6
:1012C00080917100887F883011F0803199F46093AB
:1012D000730084E8809374008091740087FFFCCFD2
:1012E00090917100987F983119F081E0903419F451
:1012F00080E0089581E0089584E9809374008091EE
:10130000740084FDFCCF08956093730084E880939B
:1013100074008091740087FFFCCF90917100987FDA
:1013200081E0983209F480E0089584EC80937400A1
:101330008091740087FFFCCF80917300089584E84A
:10134000809374008091740087FFFCCF80917300BC
:101350000895AF92BF92CF92DF92EF92FF920F93D8
:101360001F93CF93DF931F92CDB7DEB75C01F62EAC
:10137000C22E49830E9459094981642FC5010E94E8
:1013800084098AE18A95F1F700C06F2D6160C5017B
:101390000E945909CA94D12C8D2D90E07801E80E55
:1013A000F91EC501DC1003C00E949F0902C00E9403
:1013B0009509F7018083D394CD1470F7C5010F9080
:1013C000DF91CF911F910F91FF90EF90DF90CF9021
:1013D000BF90AF900C947C090F931F9321110E9432
:1013E000A9091F910F910895CF92DF92FF920F9359
:1013F0001F93CF93DF931F92CDB7DEB76C01F62E0C
:10140000890149830E9459094981642FC6010E94BC
:1014100084098AE18A95F1F700C06F2D6160C601E9
:101420000E945909C6010E949F09F8018083C601E4
:101430000E947C0981E00F90DF91CF911F910F9165
:10144000FF90DF90CF9008950F931F93CF93DF937A
:1014500000D0CDB7DEB78C012A8349830E94590999
:101460004981642FC8010E9484092A81622FC80122
:101470000E948409C8010F900F90DF91CF911F91B6
:101480000F910C947C09BF92CF92DF92EF92FF9262
:101490000F931F93CF93DF931F92CDB7DEB76C01ED
:1014A000162FB42EF22E19829E012F5F3F4F0E94FD
:1014B000F409882319F12F2D30E0201B31092F5F0B
:1014C0003F4FE1E0F0E002C0EE0FFF1F0A95E2F7A8
:1014D0003197022E01C0EE0F0A94EAF701C0EE0C1C
:1014E0002A95EAF72E2F209589812823EE212E2B8D
:1014F00029834B2D612FC6010E94240A0F90DF9192
:10150000CF911F910F91FF90EF90DF90CF90BF9000
:101510000895AF92BF92CF92DF92EF92FF920F9316
:101520001F93CF93DF931F92CDB7DEB77C01D22EEE
:10153000222319F149830E9459094981642FC70167
:101540000E948409C02E58018A2D8C198D1538F4FB
:10155000F50161915F01C7010E948409F5CFC701C0
:101560000F90DF91CF911F910F91FF90EF90DF903F
:10157000CF90BF90AF900C947C090F90DF91CF91EA
:101580001F910F91FF90EF90DF90CF90BF90AF90A1
:101590000895CF92DF92EF92FF920F931F93CF9314
:1015A000DF931F92CDB7DEB77C01162FD42EC22E4B
:1015B0009E012F5F3F4F0E94F4098981E1E0F0E036
:1015C0000C2C01C0EE0F0A94EAF7002319F0282F23
:1015D0002E2B03C02E2F2095282329834D2D612FDC
:1015E000C7010E94240A0F90DF91CF911F910F91A4
:1015F000FF90EF90DF90CF900895262F49E1FC01F6
:10160000608182E293E00C94240AEF920F93E62E1D
:1016100003E025E04AE1FC01608182E293E00E9460
:10162000430A0F91EF900895EF920F93E62E03E097
:1016300022E04AE1FC01608182E293E00E94430AD9
:101640000F91EF900895EF920F93E62E02E024E0C1
:101650004BE1FC01608182E293E00E94430A0F911A
:10166000EF900895262F4FE1FC01608182E293E024
:101670000C94240A262F40E2FC01608182E293E070
:101680000C94240A262F41E2FC01608182E293E05F
:101690000C94240A262F42E2FC01608182E293E04E
:1016A0000C94240A262F48E3FC01608182E293E037
:1016B0000C94240A0F93062F26E04AE6FC01608171
:1016C00082E293E00E94C90A0F9108950F93062FBA
:1016D00025E04AE6FC01608182E293E00E94C90AAB
:1016E0000F9108950F9301E022E04AE6FC0160812A
:1016F00082E293E00E94C90A0F9108950F9301E0DE
:1017000021E04AE6FC01608182E293E00E94C90A7E
:101710000F9108950F9301E027E04BE6FC016081F3
:1017200082E293E00E94C90A0F9108950F93062F59
:1017300026E04BE6FC01608182E293E00E94C90A48
:101740000F910895EF920F93E62E03E022E04BE60F
:10175000FC01608182E293E00E94430A0F91EF90C6
:101760000895CF93DF93EC01688182E293E00E94B9
:10177000590962E782E293E00E948409688161600E
:1017800082E293E00E94590982E293E00E94950967
:10179000C82F82E293E00E949F09D82F82E293E053
:1017A0000E947C098D2F9C2FDF91CF9108950F937C
:1017B0001F93242F8B0144E7FC01608182E293E0B8
:1017C0000E94EC091F910F9108950F93062F20E0BE
:1017D00040E0FC01608182E293E00E94C90A0F911F
:1017E00008950F93062F27E04AE6FC01608182E20C
:1017F00093E00E94C90A0F9108950F9301E023E03E
:101800004AE6FC01608182E293E00E94C90A0F91DE
:1018100008956F712111606241116064262F4DE6B9
:10182000FC01608182E293E00C94240A262F4EE6AC
:10183000FC01608182E293E00C94240A5F926F9233
:101840007F928F929F92AF92BF92CF92DF92EF9250
:10185000FF920F931F93CF93DF937C015B016A018B
:10186000622E702E20E040E0662D0E94090C602F51
:10187000C7010E94160CC0E0D0E0812C99249394FB
:10188000CC15DD0598F5CE014096C816D90618F49A
:101890005C2C5C1A02C0F0E15F2E252D30E0C40103
:1018A000871991098217930714F4572C51948501D5
:1018B0000C0F1D1F252D4FE6F701608182E293E09A
:1018C0000E94EC09C50DD11D750CCC15DD05C0F6C7
:1018D000711001C0639420E040E0662DC7010E94B2
:1018E000090C672DC7010E94160CCACFDF91CF915A
:1018F0001F910F91FF90EF90DF90CF90BF90AF902E
:101900009F908F907F906F905F9008954F925F921D
:101910006F927F928F929F92AF92BF92CF92DF92FF
:10192000EF92FF920F931F93CF93DF93CDB7DEB764
:1019300027970FB6F894DEBF0FBECDBF9F838E836F
:101940007D836C834A01622E702EE98220E040E0A4
:10195000662D0E94090C602F8E819F810E94160CBB
:10196000E980EE2029F080E190E00E94301A5C01CD
:10197000CC2039F080E190E00E94301A582E492E98
:1019800002C0512C412CE12CF12CE814F90408F090
:101990007FC0C70140968816990618F4D82CDE1827
:1019A00002C0B0E1DB2E4D2D50E080E091E08719C0
:1019B00091098417950714F4D72CD194EC81FD81FB
:1019C000EE0DFF1DCC2059F0852DA52DB42D9A2F9D
:1019D000981B9D1530F494919D933196F8CF5E2E0F
:1019E0004F2E052D142D2D2D4FE6AE81BF816C910C
:1019F00082E293E00E94890AED2DF0E0FB83EA8306
:101A0000F981FF2361F1A114B10449F120E040E024
:101A1000662D8E819F810E94090C672D8E819F818A
:101A20000E94160C85012D2D4FE6AE81BF816C9171
:101A300082E293E00E94EC094A815B81B501852D29
:101A4000942D0E94401C892B51F0C5010E94C81A98
:101A5000CC2059F1852D942D0E94C81A26C0EA8108
:101A6000FB81EE0EFF1E7D0CE814F90408F08DCF0B
:101A7000711001C0639420E040E0662D8E819F814B
:101A80000E94090C672D8E819F810E94160C7DCFCC
:101A9000F981FF2319F0C5010E94C81ACC2039F042
:101AA000852D942D0E94C81A02C080E001C081E0FB
:101AB00027960FB6F894DEBF0FBECDBFDF91CF9152
:101AC0001F910F91FF90EF90DF90CF90BF90AF905C
:101AD0009F908F907F906F905F904F900895CF92DE
:101AE000EF920F93CC24C3940E94860C0F91EF9039
:101AF000CF9008954F925F926F927F928F929F92B4
:101B0000AF92BF92CF92DF92EF92FF920F931F930B
:101B1000CF93DF9300D01F92CDB7DEB74C017B830C
:101B20006A832A01D22E222339F088E090E00E94B5
:101B3000301A182FF92E02C010E0F12C612C712CF4
:101B40006414750408F052C0EA81FB81E60DF71DAC
:101B5000C30103965C01DD20C1F04491F30131968D
:101B60008A819B81E80FF91F0491F3013296E80FF7
:101B7000F91FE490E11045C094E0690E711CEA8100
:101B8000FB81EA0DFB1D84910DC040810181E28043
:101B9000EA81FB81E80FF91FE1100FC084E0680EB5
:101BA000711C80818130D9F422E348E3F401608123
:101BB00082E293E00E94240AC3CF1E2FFF2E6E2CD8
:101BC000712CC12CEE24E394242FA301612F7F2DCF
:101BD000C4010E94860C6A0C7B1C8111B1CFDD20F0
:101BE00061F0812F9F2D0E94C81A07C0DD2039F0B7
:101BF000812F9F2D0E94C81A02C080E022C081E080
:101C000020C06E2C712CF2E0FE1548F4B301812F38
:101C10009F2D49830E94571B182FF92E4981A12F10
:101C2000BF2D80E090E02A813B812A0D3B1D861567
:101C3000970528F6F901E80FF91FE491ED93019655
:101C4000F6CF0F900F900F90DF91CF911F910F91D2
:101C5000FF90EF90DF90CF90BF90AF909F908F90CC
:101C60007F906F905F904F90089521E00C947A0DD3
:101C7000262F40E7FC01608182E293E00C94240A65
:101C8000262F41E7FC01608182E293E00C94240A54
:101C90004F925F926F927F928F929F92AF92BF927C
:101CA000CF92DF92EF92FF920F931F93CF93DF9328
:101CB00000D000D000D0CDB7DEB79E838D83DC018D
:101CC0001F961C911F9750960C91B801882777FD9D
:101CD0008095982F0E94EE1820E030E040E858E30D
:101CE0000E94CA192B013C01ED81FE81EB5BFF4F85
:101CF0006083718382839383ED81FE8113890489DC
:101D0000B801882777FD8095982F0E94EE1820E073
:101D100030E040E858E30E94CA194B015C01ED81B4
:101D2000FE81E75BFF4F6083718382839383AD8184
:101D3000BE8157961C91579758960C91B8018827E9
:101D400077FD8095982F0E94EE1820E030E040E863
:101D500058E30E94CA196B017C01ED81FE81E35BAF
:101D6000FF4F6083718382839383ED81FE81138DA6
:101D7000048DB801882777FD8095982F0E94EE1872
:101D800020E030E040E858E30E94CA1969837A8372
:101D90008B839C83ED81FE81EF5AFF4F60837183BB
:101DA000828393830D811E810B5A1F4FA3019201E1
:101DB000C301B2010E94CA192B013C01A501940183
:101DC000C501B4010E94CA199B01AC01C301B20153
:101DD0000E9489174B015C01A7019601C701B6015A
:101DE0000E94CA199B01AC01C501B4010E94891768
:101DF0006B017C0129813A814B815C81CA01B90167
:101E00000E94CA199B01AC01C701B6010E94891743
:101E10009B01AC0160E070E080E090E40E94531808
:101E2000D8016D937D938D939C93139726960FB64F
:101E3000F894DEBF0FBECDBFDF91CF911F910F9100
:101E4000FF90EF90DF90CF90BF90AF909F908F90DA
:101E50007F906F905F904F900895FC01878D90A1C7
:101E600091AF82AF83A194A193AF84AF87A190A5D6
:101E700095AF86AF0895FC0183A594A5DF01DF9699
:101E80009C9311968C93119712969C9311968C9318
:101E900083A994A9ED5BFF4F9083818308954F92AE
:101EA0005F926F927F928F929F92AF92BF92CF92EA
:101EB000DF92EF92FF920F931F93CF93DF9300D0A7
:101EC00000D0CDB7DEB78C019C012B5A3F4FD90112
:101ED0008D919D910D90BC91A02D89839A83AB83A8
:101EE000BC83F801EB5BFF4FC080D180E280F380C0
:101EF0003C9680809180A280B380A7019601C701A3
:101F0000B6010E94CA192B013C01A5019401C5012B
:101F1000B4010E94CA199B01AC01C301B2010E9425
:101F200089179B01AC0169817A818B819C810E9418
:101F3000CA199B01AC0160E070E080E89FE30E9459
:101F400088172B013C01F801E35BFF4F20813181B1
:101F500042815381C501B4010E94CA194B015C0141
:101F6000F801E75BFF4F2081318142815381C70136
:101F7000B6010E94CA199B01AC01C501B4010E94BF
:101F800089179B01AC0169817A818B819C810E94B8
:101F9000CA19A30192010F900F900F900F90DF913B
:101FA000CF911F910F91FF90EF90DF90CF90BF9056
:101FB000AF909F908F907F906F905F904F900C9418
:101FC000FC174F925F926F927F928F929F92AF9287
:101FD000BF92CF92DF92EF92FF92CF93DF93CDB774
:101FE000DEB72C970FB6F894DEBF0FBECDBFFC0155
:101FF000EB5AFF4F208131814281538129873A87F3
:102000004B875C877097208131814281538129837E
:102010003A834B835C8334962081318142815381A2
:102020002D833E834F835887349680809180A28091
:10203000B3803496C080D180E280F38069817A8158
:102040008B819C81905829813A814B815C810E94CF
:10205000CA192B013C012D813E814F815885CA014F
:10206000B9010E94CA199B01AC01C301B2010E94CF
:1020700089172B013C01A5019401C501B4010E94FF
:10208000CA199B01AC01C301B2010E9489172B013F
:102090003C01A7019601C701B6010E94CA199B0124
:1020A000AC01C301B2010E9488179B01AC01698594
:1020B0007A858B859C850E94CA1920E030E040E03B
:1020C0005FE30E94CA192B013C01A50194016981BB
:1020D0007A818B819C810E94CA194B015C01A70106
:1020E00096016D817E818F8198850E94CA199B011E
:1020F000AC01C501B4010E9488179B01AC01698540
:102100007A858B859C850E94CA19A30192012C9621
:102110000FB6F894DEBF0FBECDBFDF91CF91FF9019
:10212000EF90DF90CF90BF90AF909F908F907F9077
:102130006F905F904F900C94FC174F925F926F924C
:102140007F928F929F92AF92BF92CF92DF92EF9247
:10215000FF920F931F93CF93DF9300D000D0CDB7A2
:10216000DEB78C019C012B5A3F4FD9018D919D9177
:102170000D90BC91A02D89839A83AB83BC83F80119
:10218000EB5BFF4FC080D180E280F380349680808B
:102190009180A280B380A7019601C701B6010E9479
:1021A000CA192B013C01A5019401C501B4010E948B
:1021B000CA199B01AC01C301B2010E9489179B019E
:1021C000AC0169817A818B819C810E94CA199B0133
:1021D000AC0160E070E080E89FE30E9488172B016B
:1021E0003C01F801E35BFF4F208131814281538143
:1021F000C501B4010E94CA194B015C01F801EF5AF4
:10220000FF4F2081318142815381C701B6010E9475
:10221000CA199B01AC01C501B4010E9488179B013A
:10222000AC0169817A818B819C810E94CA19A301CA
:1022300092010E94FC177B018C0120E030E0A90193
:102240000E944F1887FF0CC02BED3FE049EC50E493
:10225000B701C8010E9489177B01382F292F02C0BE
:10226000302F212FB701832F922F0F900F900F90B7
:102270000F90DF91CF911F910F91FF90EF90DF9022
:10228000CF90BF90AF909F908F907F906F905F9016
:102290004F9008958F929F92AF92BF92CF92EF92FC
:1022A0000F93CF93DF93CDB7DEB760970FB6F89457
:1022B000DEBF0FBECDBF5C010E948A0B2FEF86E709
:1022C00091E0215080409040E1F700C0000060E0C4
:1022D000C5010E94960B21E041E060E1C5010E942A
:1022E000090C66E0C5010E94160C20E040E060E0A9
:1022F000C5010E94090C2FE745E2F501608182E2E9
:1023000093E00E94240A60E0C5010E94660B28E663
:1023100045E2F501608182E293E00E94240AC50152
:102320000E947E0BFFEF29EF80E0F15020408040BB
:10233000E1F700C00000EE24E39400E020E049E86B
:1023400057E066E671E0C5010E946F0D811102C081
:1023500080E07EC14DE750E069EE70E0C5010E946B
:10236000350E8823A9F363E0C5010E94A20B62E148
:10237000C5010E94520B64E0C5010E94FD0A61E0A4
:10238000C5010E94050B63E0C5010E94140B63E0C8
:10239000C5010E94230B63E0C5010E94380E60E076
:1023A000C5010E94400E60E0C5010E94E50B812C32
:1023B000912CF401E654FF4FE491A1E0B0E0AC0FA2
:1023C000BD1FA80DB11DEC9381E0880D9FEF891A08
:1023D000990AE3E0E81568F74B8150E09A012E5F17
:1023E0003F4F90E02817390724F7C12CEE24E394DF
:1023F0000A812981BE016C5F7F4FC5010E94860C56
:1024000060E0F401E654FF4FE491A1E0B0E0AC0FCE
:10241000BD1FA60FB11DEC936F5FFFEF8F1A9F0AD0
:10242000643078F34B8150E09A012E5F3F4F862F46
:1024300090E0281739072CF7C12CEE24E3940A8189
:102440002981BE016C5F7F4FC5010E94860CC501CA
:102450000E94720BC5010E94B10B62E0C5010E948F
:10246000320B6CE9C5010E94420B60E5C5010E9478
:102470003A0B60E0C5010E944A0BC5010E94720B35
:1024800061E0C5010E945A0B61E0C5010E94F10B99
:10249000C5010E94FD0B60E0F401E654FF4FE4919A
:1024A000A1E0B0E0AC0FBD1FA60FB11DEC936F5FB4
:1024B0002FEF821A920A643078F34B8150E09A0130
:1024C0002E5F3F4F862F90E0281739072CF7C12C3D
:1024D000EE24E3940A812981BE016C5F7F4FC50120
:1024E0000E94860C60E0F401E654FF4FE491A1E005
:1024F000B0E0AC0FBD1FA60FB11DEC936F5F8FEF67
:10250000881A980A643078F34B8150E09A012E5F64
:102510003F4F862F90E0281739072CF7C12CEE2467
:10252000E3940A812981BE016C5F7F4FC5010E943F
:10253000860C60E0F401E654FF4FE491A1E0B0E0C6
:10254000AC0FBD1FA60FB11DEC936F5F9FEF891AF3
:10255000990A643078F34B8150E09A012E5F3F4F27
:10256000862F90E0281739072CF7C12CEE24E3942E
:102570000A812981BE016C5F7F4FC5010E94860CD4
:10258000C5010E94B10B0397D8F360E0F401E65453
:10259000FF4FE491A1E0B0E0AC0FBD1FA60FB11D4D
:1025A000EC936F5FEFEF8E1A9E0A643078F34B81E5
:1025B00050E09A012E5F3F4F862F90E02817390791
:1025C0002CF70A812981BE016C5F7F4FC5010E94F3
:1025D0001E0CC5010E94B10B0397D8F3F401E65419
:1025E000FF4F60E08491A1E0B0E0AC0FBD1FA60FEB
:1025F000B11D8C936F5F643010F43196F3CF4B8133
:1026000050E09A012E5F3F4F862F90E02817390740
:10261000A4F7C12CEE24E3940A812981BE016C5FEA
:102620007F4FC5010E94860C60E0C5010E94F10B3E
:10263000C5010E94720B61E084E293E00E94FC06F7
:102640004AE251E061E084E293E00E94340781E0D5
:1026500060960FB6F894DEBF0FBECDBFDF91CF916D
:102660000F91EF90CF90BF90AF909F908F90089573
:102670001F920F920FB60F9211248F939F93809108
:102680002A0390912B030E9B03C0B09B03C005C08F
:10269000B09B03C0F894019602C0F8940197909300
:1026A0002B0380932A03809128038F5F8093280354
:1026B0009F918F910F900FBE0F901F9018951F92B2
:1026C0000F920FB60F9211248F939F9380912C033A
:1026D00090912D030F9B03C0B29B03C005C0B29B1A
:1026E00003C0F894019702C0F894019690932D03CB
:1026F00080932C03809129038F5F809329039F91FE
:102700008F910F900FBE0F901F9018951F920F92F0
:102710000FB60F9211242F938F939F9380914503AF
:10272000909146030196893E23E0920728F4909306
:1027300046038093450304C010924603109245035C
:102740009F918F912F910F900FBE0F901F90189512
:102750001F920F920FB60F9211248F938091010157
:10276000815080930101811105C082E080930101B5
:102770008AEA01C082E08FBD78948F910F900FBEDE
:102780000F901F9018951F920F920FB60F92112461
:102790000BB60F921F932F933F934F935F936F93BB
:1027A0007F938F939F93AF93BF93CF93DF93EF93D9
:1027B000FF93789423FE2DC014E189EC92E00E94EF
:1027C000B10BEC01115011F08832B8F38832A9F442
:1027D00048E268ED72E089EC92E00E94D70B89EC48
:1027E00092E00E94480E89EC92E00E942D0F89EC45
:1027F00092E00E943B0FAC980CC0893220F089EC2B
:1028000092E00E94720BDD27D093C702C093C602EC
:10281000AC9AFF91EF91DF91CF91BF91AF919F91D2
:102820008F917F916F915F914F913F912F911F9168
:102830000F900BBE0F900FBE0F901F9018951F9218
:102840000F920FB60F9211242F938F939F9378942A
:1028500080910001815009F48AE080930001809109
:102860000001843069F08930A9F4809128039091A7
:102870004403282F291B20932603809344030AC076
:102880008091290390914303282F291B209327032C
:10289000809343039F918F912F910F900FBE0F90C4
:1028A0001F901895EF92FF920F931F93CF93DF9392
:1028B000E89420F8E89421F8E89422F8E89423F8C2
:1028C000E89424F81BBA8FEF8ABB95E098BB98EF89
:1028D00097BB85BB90EF94BB12BA91BB20EC23B998
:1028E0009CE392B91092620010926100809365009F
:1028F0001092640010BE13BE12BE11BE8AEA8FBDD4
:1029000082E18EBD1DBC1CBC88E893E197BD86BDED
:102910008BE085BD14BC8AEF83BD82EF80938B0072
:1029200081E180938A00109289001092880081E0F2
:102930008093810080E9809380001092870010923C
:10294000860010928500109284001092830088EC1B
:102950008093820010926A0080E58ABF29BF28BF59
:1029600084EA87BF82E080937D0010929B0088E913
:1029700080939A0086E080939D001092980087E6ED
:102980008093990080E888B910BCF89484E293E0C1
:102990000E947C060E94AA0448E052E060E084E2C3
:1029A00093E00E94E00660EC84E293E00E94280637
:1029B00083E293E00E94F3088C0164E670E00E94D9
:1029C0004E177C01605D84E293E00E9453066EE244
:1029D00084E293E00E945306CAE0D0E0C701BE0142
:1029E0000E944E17605D84E293E00E945306C80186
:1029F000BE010E944E1760E3680F84E293E00E94DC
:102A0000530669E172E084E293E00E94CE0685E21B
:102A100093E00E948A052FEF83EC99E021508040DB
:102A20009040E1F700C0000083E293E00E940209B9
:102A3000E89423F8109271008CE0809370004FE1CD
:102A400052E060E084E293E00E94E00689EC92E0CC
:102A50000E944A11882361F040E352E061E084E281
:102A600093E00E94340785E293E00E94BF0514C002
:102A700041E452E060E084E293E00E94340742E5E2
:102A800052E061E084E293E00E94340785E293E043
:102A90000E94F4059899FECF7894DF91CF911F9111
:102AA0000F91FF90EF9008950E94521461E089EC1D
:102AB00092E00E94F10B89EC92E00E94720B689404
:102AC00023F8C4E68091630090E0809590958F7024
:102AD00099272C2F30E08217930799F1C09163005A
:102AE000C095CF7084E293E00E94F206809163006B
:102AF00090E0809590958F7099278130910571F0C5
:102B00002CF4892BA9F443E652E00DC082309105E4
:102B100041F0039769F446E952E005C044E752E00A
:102B200002C045E852E060E084E293E00E9434078E
:102B300085E293E00E948A0560E084E293E00E94CF
:102B40000F078091630090E0809590958F70992792
:102B5000892B09F063C060E884E293E00E942806B4
:102B600047EA52E060E084E293E00E94E00668E811
:102B700084E293E00E94280662E584E293E00E94EA
:102B8000530689EC92E00E944F0F21EE3EE245E6AB
:102B900052E40E94CA19AB01BC0123E084E293E035
:102BA0000E94EB0760E284E293E00E94530660EC2F
:102BB00084E293E00E94280660E584E293E00E94AC
:102BC000530689EC92E00E94E10F21EE3EE245E6D9
:102BD00052E40E94CA19AB01BC0123E084E293E0F5
:102BE0000E94EB0760E284E293E00E94530668ECE7
:102BF00084E293E00E94280669E584E293E00E9463
:102C0000530689EC92E00E949D1021EE3EE245E6DB
:102C100052E40E94CA19AB01BC0170C080916300EC
:102C200090E0809590958F709927019709F06CC07E
:102C300060E884E293E00E94280667E584E293E07E
:102C40000E94530640910E0350910F0360911003B0
:102C50007091110323E084E293E00E94EB0760E2AD
:102C600084E293E00E94530668E884E293E00E94C5
:102C7000280668E584E293E00E945306409112031F
:102C800050911303609114037091150323E084E2C3
:102C900093E00E94EB0760E284E293E00E94530617
:102CA00060EC84E293E00E94280669E584E293E008
:102CB0000E94530640911603509117036091180328
:102CC0007091190323E084E293E00E94EB0760E235
:102CD00084E293E00E94530668EC84E293E00E9451
:102CE00028066AE584E293E00E94530640911A03A5
:102CF00050911B0360911C0370911D0323E084E23B
:102D000093E00E94EB078AC08091630090E0809579
:102D100090958F7099270297D1F54FEA52E060E0C5
:102D200084E293E00E94E006609102037091030345
:102D300084E293E00E94C20760E284E293E00E9492
:102D4000530661EC84E293E00E94280669E584E280
:102D500093E00E945306609104037091050384E29E
:102D600093E00E94C20760E284E293E00E9453066F
:102D700069EC84E293E00E9428066AE584E293E02D
:102D80000E945306609106037091070343C080912F
:102D9000630090E0809590958F709927039709F0D4
:102DA00042C04AEB52E060E084E293E00E94E00619
:102DB000609108037091090384E293E00E94C207C6
:102DC00060E284E293E00E94530661EC84E293E0C7
:102DD0000E94280669E584E293E00E945306609110
:102DE0000A0370910B0384E293E00E94C20760E241
:102DF00084E293E00E94530669EC84E293E00E942F
:102E000028066AE584E293E00E94530660910C0371
:102E100070910D0384E293E00E94C20760E284E2B5
:102E200093E00E94530683E293E00E9402098FE33D
:102E30009CE90197F1F700C0000044CE8EE293E0D8
:102E40000E94FA0486E293E00E94050580E287B9B9
:102E500084E886B980ED8093C9020895991B79E0D2
:102E600004C0991F961708F0961B881F7A95C9F71A
:102E700080950895AA1BBB1B51E107C0AA1FBB1F69
:102E8000A617B70710F0A61BB70B881F991F5A95F6
:102E9000A9F780959095BC01CD01089597FB072E69
:102EA00016F4009407D077FD09D00E943A1707FC6A
:102EB00005D03EF4909581959F4F0895709561954A
:102EC0007F4F0895A1E21A2EAA1BBB1BFD010DC066
:102ED000AA1FBB1FEE1FFF1FA217B307E407F507CA
:102EE00020F0A21BB30BE40BF50B661F771F881FA6
:102EF000991F1A9469F760957095809590959B013C
:102F0000AC01BD01CF0108950790F691E02D099421
:102F10005058BB27AA270ED0FCC1EDD130F0F2D11A
:102F200020F031F49F3F11F41EF4BDC10EF4E09582
:102F3000E7FBB3C1E92FFED180F3BA17620773072D
:102F40008407950718F071F49EF516C20EF4E0950B
:102F50000B2EBA2FA02D0B01B90190010C01CA0153
:102F6000A0011124FF27591B99F0593F50F4503EFE
:102F700068F11A16F040A22F232F342F4427585FF0
:102F8000F3CF469537952795A795F0405395C9F708
:102F90007EF41F16BA0B620B730B840BBAF09150C0
:102FA000A1F0FF0FBB1F661F771F881FC2F70EC05F
:102FB000BA0F621F731F841F48F487957795679532
:102FC000B795F7959E3F08F0B3CF9395880F08F01B
:102FD0009927EE0F9795879508958DD158F080E841
:102FE00091E009F49EEF8ED128F040E851E059F4C9
:102FF0005EEF09C058C1C0C1E92FE0789BD168F3EA
:10300000092E052AC1F3261737074807590738F054
:103010000E2E07F8E02569F0E025E0640AC0EF63B2
:1030200007F8009407FADB01B9019D01DC01CA0130
:10303000AD01EF9347D06DD10AD05F91552331F0A8
:103040002BED3FE049E450FD49EC63CF0895DF9359
:10305000DD27B92FBF7740E85FE31616170648074C
:103060005B0710F4D92F8FD19F938F937F936F932A
:10307000F4D1ECE8F0E01AD14CD12F913F914F916F
:103080005F9194D1DD2349F09058A2EA2AED3FE008
:1030900049EC5FE3D0785D274DDFDF913AC1D9D0AD
:1030A00008F481E008950CD034C12CD140F023D134
:1030B00030F021F45F3F19F0F0C051115EC1F3C050
:1030C00039D198F39923C9F35523B1F3951B550BC7
:1030D000BB27AA2762177307840738F09F5F5F4FEB
:1030E000220F331F441FAA1FA9F333D00E2E3AF02C
:1030F000E0E830D091505040E695001CCAF729D046
:10310000FE2F27D0660F771F881FBB1F2617370794
:103110004807AB07B0E809F0BB0B802DBF01FF27C4
:1031200093585F4F2AF09E3F510568F0B6C025C105
:103130005F3FECF3983EDCF3869577956795B795FE
:10314000F7959F5FC9F7880F911D9695879597F919
:103150000895E1E0660F771F881FBB1F6217730792
:103160008407BA0720F0621B730B840BBA0BEE1FA7
:1031700088F7E095089504D06894B111FEC00895D1
:10318000E1D088F09F5790F0B92F9927B751A0F060
:10319000D1F0660F771F881F991F1AF0BA95C9F7EB
:1031A00012C0B13081F0E8D0B1E00895E5C0672FDA
:1031B000782F8827B85F39F0B93FCCF3869577959B
:1031C0006795B395D9F73EF4909580957095619584
:1031D0007F4F8F4F9F4F0895E89409C097FB3EF4AF
:1031E00090958095709561957F4F8F4F9F4F992354
:1031F000A9F0F92F96E9BB279395F69587957795D2
:103200006795B795F111F8CFFAF4BB0F11F460FF91
:103210001BC06F5F7F4F8F4F9F4F16C0882311F0E9
:1032200096E911C0772321F09EE8872F762F05C0FD
:10323000662371F096E8862F70E060E02AF09A9598
:10324000660F771F881FDAF7880F9695879597F98D
:103250000895990F0008550FAA0BE0E8FEEF161627
:103260001706E807F907C0F012161306E407F5077A
:1032700098F0621B730B840B950B39F40A2661F0EE
:10328000232B242B252B21F408950A2609F4A14091
:10329000A6958FEF811D811D089597F99F6780E89E
:1032A00070E060E008959FEF80EC0895DF93CF9386
:1032B0001F930F93FF92EF92DF927B018C01689432
:1032C00005C0DA2EEF0172D0FE01E894A591259198
:1032D000359145915591AEF3EF012CDEFE0197013A
:1032E000A801DA9479F7DF90EF90FF900F911F918A
:1032F000CF91DF91089500240A9416161706180638
:103300000906089500240A941216130614060506E9
:103310000895092E0394000C11F4882352F0BB0F7A
:1033200040F4BF2B11F460FF04C06F5F7F4F8F4FDD
:103330009F4F089557FD9058440F551F59F05F3F18
:1033400071F04795880F97FB991F61F09F3F79F0C7
:1033500087950895121613061406551FF2CF469549
:10336000F1DF08C0161617061806991FF1CF8695CB
:103370007105610508940895E894BB2766277727AF
:10338000CB0197F908959B01AC0160E070E080E803
:103390009FE389CE0BD0BDCFAEDF28F0B3DF18F0AE
:1033A000952309F07ACF7FCF1124E7CFC3DFA0F3B5
:1033B000959FD1F3950F50E0551F629FF001729FCA
:1033C000BB27F00DB11D639FAA27F00DB11DAA1FE9
:1033D000649F6627B00DA11D661F829F2227B00D36
:1033E000A11D621F739FB00DA11D621F839FA00DC1
:1033F000611D221F749F3327A00D611D231F849F11
:10340000600D211D822F762F6A2F11249F57504067
:103410008AF0E1F088234AF0EE0FFF1FBB1F661F02
:10342000771F881F91505040A9F79E3F510570F0BB
:1034300034CFA3CF5F3FECF3983EDCF386957795CE
:103440006795B795F795E7959F5FC1F7FE2B880FB6
:10345000911D9695879597F908959B01AC019ACF98
:10346000CF93DF938230910510F482E090E0E091F9
:103470004B03F0914C0320E030E0A0E0B0E0309747
:1034800039F14081518148175907B8F04817590759
:1034900071F482819381109729F013969C938E93F7
:1034A00012972CC090934C0380934B0327C0211597
:1034B000310531F04217530718F0A901DB0101C0B3
:1034C000EF019A01BD01DF010280F381E02DD7CF2A
:1034D00021153105F9F0281B390B2430310580F412
:1034E0008A819B816115710521F0FB0193838283A1
:1034F00004C090934C0380934B03FE01329644C06A
:10350000FE01E20FF31F8193919322503109398319
:1035100028833AC02091490330914A03232B41F478
:10352000209104013091050130934A03209349030F
:1035300020910201309103012115310541F42DB78D
:103540003EB74091060150910701241B350BE091D5
:103550004903F0914A03E217F307A0F42E1B3F0B37
:103560002817390778F0AC014E5F5F4F24173507F5
:1035700048F04E0F5F1F50934A03409349038193D5
:10358000919302C0E0E0F0E0CF01DF91CF91089588
:10359000CF93DF93009709F487C0FC013297138221
:1035A0001282C0914B03D0914C03209781F420816B
:1035B0003181280F391F8091490390914A03821766
:1035C000930779F5F0934A03E09349036DC0DE0158
:1035D00020E030E0AE17BF0750F412964D915C9199
:1035E00013979D014115510509F1DA01F3CFB3831A
:1035F000A28340815181840F951F8A179B0771F424
:103600008D919C911197840F951F029691838083D1
:1036100012968D919C911397938382832115310586
:1036200029F4F0934C03E0934B033EC0D901139669
:10363000FC93EE9312974D915D91A40FB51FEA177D
:10364000FB0779F480819181840F951F0296D9013F
:1036500011969C938E938281938113969C938E9363
:103660001297E0E0F0E08A819B81009719F0FE015B
:10367000EC01F9CFCE01029628813981820F931F88
:103680002091490330914A032817390769F430978C
:1036900029F410924C0310924B0302C01382128241
:1036A000D0934A03C0934903DF91CF9108956F925D
:1036B0007F928F929F92AF92BF92CF92DF92EF92C2
:1036C000FF920F931F93CF93DF93EC01CB012097D1
:1036D00081F4DF91CF911F910F91FF90EF90DF90D8
:1036E000CF90BF90AF909F908F907F906F900C94F1
:1036F000301AFE01E60FF71F9E0122503109E21732
:10370000F30708F4ACC0D9010D911C91119706176D
:103710001707B8F00530110508F49FC0A801445000
:1037200051094617570708F498C002501109061BA3
:10373000170B019311936D937C93CF010E94C81ACC
:103740008CC05B01A01AB10A4E01800E911EA0919F
:103750004B03B0914C03612C712C60E070E010972A
:1037600009F449C0A815B905C9F5ED90FC90119769
:10377000670142E0C40ED11CCA14DB0478F1470192
:103780008A189B08640142E0C40ED11C1296BC90BA
:1037900012971396AC91B5E0CB16D10440F0B282EB
:1037A000A38391828082D9018D939C9309C00E5F7F
:1037B0001F4F0E0D1F1DF90111830083EB2DFA2FF2
:1037C0006115710531F0DB011396FC93EE931297AE
:1037D00044C0F0934C03E0934B033FC06D917C9148
:1037E00011976616770608F43B01BD0112960D90FD
:1037F000BC91A02DB4CF6091490370914A03681524
:103800007905E9F468167906D0F4409102015091E7
:1038100003014115510541F44DB75EB760910601B2
:1038200070910701461B570BE417F507C0F4F0939E
:103830004A03E0934903F901918380830EC00E94FB
:10384000301A7C01009759F0A801BE010E944D1C5E
:10385000CE010E94C81AC70104C0CE0102C080E098
:1038600090E0DF91CF911F910F91FF90EF90DF904B
:10387000CF90BF90AF909F908F907F906F90089562
:10388000FB01DC0104C08D910190801921F44150AD
:103890005040C8F7881B990B0895FB01DC0102C05A
:1038A00001900D9241505040D8F70895F894FFCF01
:1038B0000A0200004D03200056732E4261746572A7
:1038C00065203C20362E35560049736920556C61C1
:1038D0006E672042617465726500496E69742044A8
:1038E0004D502053656C65736169004B616C696272
:1038F000726173692053656E736F720053656C65F6
:10390000736169203E3E3E3E3E3E3E3E0044696855
:10391000656E74696B616E203E3E3E3E3E004D65B5
:103920007261682D48696A61752D4269727500314E
:103930002E5761726E61204D65726168203E3E00B7
:1039400054656B616E20546F6D626F6C20313C3C2E
:1039500000322E5761726E612048696A6175203E9F
:103960003E00332E5761726E612042697275203EAF
:103970003E3E00342E5761726E6120486974616D5D
:10398000203E3E00204D657261682064616E2042D9
:103990006972752000322E5761726E612042697221
:1039A0007520203E3E00332E5761726E61204869BB
:1039B00074616D203E3E3E00546567616E67616EC6
:1039C000204261746572653A0020566F6C74004D38
:1039D00050553630353020496E697420444D5000C2
:1039E000494D5520496E6974204F4B203E3E3E3E66
:1039F00000494D5520496E6974204661696C203E2E
:103A00003E00436865636B2048617264776172654C
:103A10002121003E526F6C6C2050697463682059FC
:103A2000617720003E446174612051756174657254
:103A30006E696F6E003E44617461204779726F73E6
:103A4000636F706520003E442E416363656C657250
:103A50006F6D65746572005375647574203A004724
:103A600079726F446174613A58004163632E446116
:063A700074613A580000E9
:00000001FF
